{
	"part5/contracts/MiniLendingPool.sol": {
		"MiniLendingPool": {
			"abi": [
				{
					"inputs": [
						{
							"internalType": "address",
							"name": "_token",
							"type": "address"
						}
					],
					"stateMutability": "nonpayable",
					"type": "constructor"
				},
				{
					"inputs": [
						{
							"internalType": "address",
							"name": "token",
							"type": "address"
						}
					],
					"name": "SafeERC20FailedOperation",
					"type": "error"
				},
				{
					"anonymous": false,
					"inputs": [
						{
							"indexed": true,
							"internalType": "address",
							"name": "user",
							"type": "address"
						},
						{
							"indexed": false,
							"internalType": "uint256",
							"name": "amount",
							"type": "uint256"
						},
						{
							"indexed": false,
							"internalType": "uint256",
							"name": "totalDeposited",
							"type": "uint256"
						}
					],
					"name": "Deposited",
					"type": "event"
				},
				{
					"anonymous": false,
					"inputs": [
						{
							"indexed": true,
							"internalType": "address",
							"name": "user",
							"type": "address"
						},
						{
							"indexed": false,
							"internalType": "uint256",
							"name": "amount",
							"type": "uint256"
						},
						{
							"indexed": false,
							"internalType": "uint256",
							"name": "totalDeposited",
							"type": "uint256"
						}
					],
					"name": "Withdrawn",
					"type": "event"
				},
				{
					"inputs": [
						{
							"internalType": "uint256",
							"name": "amount",
							"type": "uint256"
						}
					],
					"name": "deposit",
					"outputs": [],
					"stateMutability": "nonpayable",
					"type": "function"
				},
				{
					"inputs": [
						{
							"internalType": "address",
							"name": "",
							"type": "address"
						}
					],
					"name": "deposits",
					"outputs": [
						{
							"internalType": "uint256",
							"name": "",
							"type": "uint256"
						}
					],
					"stateMutability": "view",
					"type": "function"
				},
				{
					"inputs": [
						{
							"internalType": "address",
							"name": "user",
							"type": "address"
						}
					],
					"name": "getDeposit",
					"outputs": [
						{
							"internalType": "uint256",
							"name": "",
							"type": "uint256"
						}
					],
					"stateMutability": "view",
					"type": "function"
				},
				{
					"inputs": [],
					"name": "getTotalDeposited",
					"outputs": [
						{
							"internalType": "uint256",
							"name": "",
							"type": "uint256"
						}
					],
					"stateMutability": "view",
					"type": "function"
				},
				{
					"inputs": [],
					"name": "token",
					"outputs": [
						{
							"internalType": "contract IERC20",
							"name": "",
							"type": "address"
						}
					],
					"stateMutability": "view",
					"type": "function"
				},
				{
					"inputs": [],
					"name": "totalDeposited",
					"outputs": [
						{
							"internalType": "uint256",
							"name": "",
							"type": "uint256"
						}
					],
					"stateMutability": "view",
					"type": "function"
				},
				{
					"inputs": [
						{
							"internalType": "uint256",
							"name": "amount",
							"type": "uint256"
						}
					],
					"name": "withdraw",
					"outputs": [],
					"stateMutability": "nonpayable",
					"type": "function"
				}
			],
			"devdoc": {
				"details": "A minimal lending pool that allows users to deposit and withdraw ERC-20 tokens",
				"errors": {
					"SafeERC20FailedOperation(address)": [
						{
							"details": "An operation with an ERC-20 token failed."
						}
					]
				},
				"kind": "dev",
				"methods": {
					"constructor": {
						"details": "Constructor that sets the token address",
						"params": {
							"_token": "Address of the ERC-20 token to be used in the pool"
						}
					},
					"deposit(uint256)": {
						"details": "Deposit tokens into the pool",
						"params": {
							"amount": "Amount of tokens to deposit"
						}
					},
					"getDeposit(address)": {
						"details": "Get the deposit balance of a user",
						"params": {
							"user": "Address of the user"
						},
						"returns": {
							"_0": "The amount of tokens deposited by the user"
						}
					},
					"getTotalDeposited()": {
						"details": "Get the total amount deposited in the pool",
						"returns": {
							"_0": "The total amount of tokens in the pool"
						}
					},
					"withdraw(uint256)": {
						"details": "Withdraw tokens from the pool",
						"params": {
							"amount": "Amount of tokens to withdraw"
						}
					}
				},
				"title": "MiniLendingPool",
				"version": 1
			},
			"evm": {
				"assembly": "    /* \"part5/contracts/MiniLendingPool.sol\":303:2837  contract MiniLendingPool {... */\n  mstore(0x40, 0xa0)\n    /* \"part5/contracts/MiniLendingPool.sol\":965:1120  constructor(address _token) {... */\n  callvalue\n  dup1\n  iszero\n  tag_1\n  jumpi\n  revert(0x00, 0x00)\ntag_1:\n  pop\n  mload(0x40)\n  sub(codesize, bytecodeSize)\n  dup1\n  bytecodeSize\n  dup4\n  codecopy\n  dup2\n  dup2\n  add\n  0x40\n  mstore\n  dup2\n  add\n  swap1\n  tag_2\n  swap2\n  swap1\n  tag_3\n  jump\t// in\ntag_2:\n    /* \"part5/contracts/MiniLendingPool.sol\":1029:1030  0 */\n  0x00\n    /* \"part5/contracts/MiniLendingPool.sol\":1011:1031  _token != address(0) */\n  0xffffffffffffffffffffffffffffffffffffffff\n  and\n    /* \"part5/contracts/MiniLendingPool.sol\":1011:1017  _token */\n  dup2\n    /* \"part5/contracts/MiniLendingPool.sol\":1011:1031  _token != address(0) */\n  0xffffffffffffffffffffffffffffffffffffffff\n  and\n  sub\n    /* \"part5/contracts/MiniLendingPool.sol\":1003:1081  require(_token != address(0), \"MiniLendingPool: token address cannot be zero\") */\n  tag_6\n  jumpi\n  mload(0x40)\n  0x08c379a000000000000000000000000000000000000000000000000000000000\n  dup2\n  mstore\n  0x04\n  add\n  tag_7\n  swap1\n  tag_8\n  jump\t// in\ntag_7:\n  mload(0x40)\n  dup1\n  swap2\n  sub\n  swap1\n  revert\ntag_6:\n    /* \"part5/contracts/MiniLendingPool.sol\":1106:1112  _token */\n  dup1\n    /* \"part5/contracts/MiniLendingPool.sol\":1091:1113  token = IERC20(_token) */\n  0xffffffffffffffffffffffffffffffffffffffff\n  and\n  0x80\n  dup2\n  0xffffffffffffffffffffffffffffffffffffffff\n  and\n  dup2\n  mstore\n  pop\n  pop\n    /* \"part5/contracts/MiniLendingPool.sol\":965:1120  constructor(address _token) {... */\n  pop\n    /* \"part5/contracts/MiniLendingPool.sol\":303:2837  contract MiniLendingPool {... */\n  jump(tag_9)\n    /* \"#utility.yul\":88:205   */\ntag_11:\n    /* \"#utility.yul\":197:198   */\n  0x00\n    /* \"#utility.yul\":194:195   */\n  0x00\n    /* \"#utility.yul\":187:199   */\n  revert\n    /* \"#utility.yul\":334:460   */\ntag_13:\n    /* \"#utility.yul\":371:378   */\n  0x00\n    /* \"#utility.yul\":411:453   */\n  0xffffffffffffffffffffffffffffffffffffffff\n    /* \"#utility.yul\":404:409   */\n  dup3\n    /* \"#utility.yul\":400:454   */\n  and\n    /* \"#utility.yul\":389:454   */\n  swap1\n  pop\n    /* \"#utility.yul\":334:460   */\n  swap2\n  swap1\n  pop\n  jump\t// out\n    /* \"#utility.yul\":466:562   */\ntag_14:\n    /* \"#utility.yul\":503:510   */\n  0x00\n    /* \"#utility.yul\":532:556   */\n  tag_26\n    /* \"#utility.yul\":550:555   */\n  dup3\n    /* \"#utility.yul\":532:556   */\n  tag_13\n  jump\t// in\ntag_26:\n    /* \"#utility.yul\":521:556   */\n  swap1\n  pop\n    /* \"#utility.yul\":466:562   */\n  swap2\n  swap1\n  pop\n  jump\t// out\n    /* \"#utility.yul\":568:690   */\ntag_15:\n    /* \"#utility.yul\":641:665   */\n  tag_28\n    /* \"#utility.yul\":659:664   */\n  dup2\n    /* \"#utility.yul\":641:665   */\n  tag_14\n  jump\t// in\ntag_28:\n    /* \"#utility.yul\":634:639   */\n  dup2\n    /* \"#utility.yul\":631:666   */\n  eq\n    /* \"#utility.yul\":621:684   */\n  tag_29\n  jumpi\n    /* \"#utility.yul\":680:681   */\n  0x00\n    /* \"#utility.yul\":677:678   */\n  0x00\n    /* \"#utility.yul\":670:682   */\n  revert\n    /* \"#utility.yul\":621:684   */\ntag_29:\n    /* \"#utility.yul\":568:690   */\n  pop\n  jump\t// out\n    /* \"#utility.yul\":696:839   */\ntag_16:\n    /* \"#utility.yul\":753:758   */\n  0x00\n    /* \"#utility.yul\":784:790   */\n  dup2\n    /* \"#utility.yul\":778:791   */\n  mload\n    /* \"#utility.yul\":769:791   */\n  swap1\n  pop\n    /* \"#utility.yul\":800:833   */\n  tag_31\n    /* \"#utility.yul\":827:832   */\n  dup2\n    /* \"#utility.yul\":800:833   */\n  tag_15\n  jump\t// in\ntag_31:\n    /* \"#utility.yul\":696:839   */\n  swap3\n  swap2\n  pop\n  pop\n  jump\t// out\n    /* \"#utility.yul\":845:1196   */\ntag_3:\n    /* \"#utility.yul\":915:921   */\n  0x00\n    /* \"#utility.yul\":964:966   */\n  0x20\n    /* \"#utility.yul\":952:961   */\n  dup3\n    /* \"#utility.yul\":943:950   */\n  dup5\n    /* \"#utility.yul\":939:962   */\n  sub\n    /* \"#utility.yul\":935:967   */\n  slt\n    /* \"#utility.yul\":932:1051   */\n  iszero\n  tag_33\n  jumpi\n    /* \"#utility.yul\":970:1049   */\n  tag_34\n  tag_11\n  jump\t// in\ntag_34:\n    /* \"#utility.yul\":932:1051   */\ntag_33:\n    /* \"#utility.yul\":1090:1091   */\n  0x00\n    /* \"#utility.yul\":1115:1179   */\n  tag_35\n    /* \"#utility.yul\":1171:1178   */\n  dup5\n    /* \"#utility.yul\":1162:1168   */\n  dup3\n    /* \"#utility.yul\":1151:1160   */\n  dup6\n    /* \"#utility.yul\":1147:1169   */\n  add\n    /* \"#utility.yul\":1115:1179   */\n  tag_16\n  jump\t// in\ntag_35:\n    /* \"#utility.yul\":1105:1179   */\n  swap2\n  pop\n    /* \"#utility.yul\":1061:1189   */\n  pop\n    /* \"#utility.yul\":845:1196   */\n  swap3\n  swap2\n  pop\n  pop\n  jump\t// out\n    /* \"#utility.yul\":1202:1371   */\ntag_17:\n    /* \"#utility.yul\":1286:1297   */\n  0x00\n    /* \"#utility.yul\":1320:1326   */\n  dup3\n    /* \"#utility.yul\":1315:1318   */\n  dup3\n    /* \"#utility.yul\":1308:1327   */\n  mstore\n    /* \"#utility.yul\":1360:1364   */\n  0x20\n    /* \"#utility.yul\":1355:1358   */\n  dup3\n    /* \"#utility.yul\":1351:1365   */\n  add\n    /* \"#utility.yul\":1336:1365   */\n  swap1\n  pop\n    /* \"#utility.yul\":1202:1371   */\n  swap3\n  swap2\n  pop\n  pop\n  jump\t// out\n    /* \"#utility.yul\":1377:1609   */\ntag_18:\n    /* \"#utility.yul\":1517:1551   */\n  0x4d696e694c656e64696e67506f6f6c3a20746f6b656e20616464726573732063\n    /* \"#utility.yul\":1513:1514   */\n  0x00\n    /* \"#utility.yul\":1505:1511   */\n  dup3\n    /* \"#utility.yul\":1501:1515   */\n  add\n    /* \"#utility.yul\":1494:1552   */\n  mstore\n    /* \"#utility.yul\":1586:1601   */\n  0x616e6e6f74206265207a65726f00000000000000000000000000000000000000\n    /* \"#utility.yul\":1581:1583   */\n  0x20\n    /* \"#utility.yul\":1573:1579   */\n  dup3\n    /* \"#utility.yul\":1569:1584   */\n  add\n    /* \"#utility.yul\":1562:1602   */\n  mstore\n    /* \"#utility.yul\":1377:1609   */\n  pop\n  jump\t// out\n    /* \"#utility.yul\":1615:1981   */\ntag_19:\n    /* \"#utility.yul\":1757:1760   */\n  0x00\n    /* \"#utility.yul\":1778:1845   */\n  tag_39\n    /* \"#utility.yul\":1842:1844   */\n  0x2d\n    /* \"#utility.yul\":1837:1840   */\n  dup4\n    /* \"#utility.yul\":1778:1845   */\n  tag_17\n  jump\t// in\ntag_39:\n    /* \"#utility.yul\":1771:1845   */\n  swap2\n  pop\n    /* \"#utility.yul\":1854:1947   */\n  tag_40\n    /* \"#utility.yul\":1943:1946   */\n  dup3\n    /* \"#utility.yul\":1854:1947   */\n  tag_18\n  jump\t// in\ntag_40:\n    /* \"#utility.yul\":1972:1974   */\n  0x40\n    /* \"#utility.yul\":1967:1970   */\n  dup3\n    /* \"#utility.yul\":1963:1975   */\n  add\n    /* \"#utility.yul\":1956:1975   */\n  swap1\n  pop\n    /* \"#utility.yul\":1615:1981   */\n  swap2\n  swap1\n  pop\n  jump\t// out\n    /* \"#utility.yul\":1987:2406   */\ntag_8:\n    /* \"#utility.yul\":2153:2157   */\n  0x00\n    /* \"#utility.yul\":2191:2193   */\n  0x20\n    /* \"#utility.yul\":2180:2189   */\n  dup3\n    /* \"#utility.yul\":2176:2194   */\n  add\n    /* \"#utility.yul\":2168:2194   */\n  swap1\n  pop\n    /* \"#utility.yul\":2240:2249   */\n  dup2\n    /* \"#utility.yul\":2234:2238   */\n  dup2\n    /* \"#utility.yul\":2230:2250   */\n  sub\n    /* \"#utility.yul\":2226:2227   */\n  0x00\n    /* \"#utility.yul\":2215:2224   */\n  dup4\n    /* \"#utility.yul\":2211:2228   */\n  add\n    /* \"#utility.yul\":2204:2251   */\n  mstore\n    /* \"#utility.yul\":2268:2399   */\n  tag_42\n    /* \"#utility.yul\":2394:2398   */\n  dup2\n    /* \"#utility.yul\":2268:2399   */\n  tag_19\n  jump\t// in\ntag_42:\n    /* \"#utility.yul\":2260:2399   */\n  swap1\n  pop\n    /* \"#utility.yul\":1987:2406   */\n  swap2\n  swap1\n  pop\n  jump\t// out\n    /* \"part5/contracts/MiniLendingPool.sol\":303:2837  contract MiniLendingPool {... */\ntag_9:\n  mload(0x80)\n  codecopy(0x00, dataOffset(sub_0), dataSize(sub_0))\n  0x00\n  assignImmutable(\"0x2eb0a7787e491ea8a1fddc10012f5501bfb04332a2b5dce0f8e4c1196d1a6113\")\n  return(0x00, dataSize(sub_0))\nstop\n\nsub_0: assembly {\n        /* \"part5/contracts/MiniLendingPool.sol\":303:2837  contract MiniLendingPool {... */\n      mstore(0x40, 0x80)\n      callvalue\n      dup1\n      iszero\n      tag_1\n      jumpi\n      revert(0x00, 0x00)\n    tag_1:\n      pop\n      jumpi(tag_2, lt(calldatasize, 0x04))\n      shr(0xe0, calldataload(0x00))\n      dup1\n      0xe1254fba\n      gt\n      tag_10\n      jumpi\n      dup1\n      0xe1254fba\n      eq\n      tag_6\n      jumpi\n      dup1\n      0xfc0c546a\n      eq\n      tag_7\n      jumpi\n      dup1\n      0xfc7e286d\n      eq\n      tag_8\n      jumpi\n      dup1\n      0xff50abdc\n      eq\n      tag_9\n      jumpi\n      jump(tag_2)\n    tag_10:\n      dup1\n      0x2e1a7d4d\n      eq\n      tag_3\n      jumpi\n      dup1\n      0xb68ef559\n      eq\n      tag_4\n      jumpi\n      dup1\n      0xb6b55f25\n      eq\n      tag_5\n      jumpi\n    tag_2:\n      revert(0x00, 0x00)\n        /* \"part5/contracts/MiniLendingPool.sol\":1812:2336  function withdraw(uint256 amount) external {... */\n    tag_3:\n      tag_11\n      0x04\n      dup1\n      calldatasize\n      sub\n      dup2\n      add\n      swap1\n      tag_12\n      swap2\n      swap1\n      tag_13\n      jump\t// in\n    tag_12:\n      tag_14\n      jump\t// in\n    tag_11:\n      stop\n        /* \"part5/contracts/MiniLendingPool.sol\":2736:2835  function getTotalDeposited() external view returns (uint256) {... */\n    tag_4:\n      tag_15\n      tag_16\n      jump\t// in\n    tag_15:\n      mload(0x40)\n      tag_17\n      swap2\n      swap1\n      tag_18\n      jump\t// in\n    tag_17:\n      mload(0x40)\n      dup1\n      swap2\n      sub\n      swap1\n      return\n        /* \"part5/contracts/MiniLendingPool.sol\":1232:1698  function deposit(uint256 amount) external {... */\n    tag_5:\n      tag_19\n      0x04\n      dup1\n      calldatasize\n      sub\n      dup2\n      add\n      swap1\n      tag_20\n      swap2\n      swap1\n      tag_13\n      jump\t// in\n    tag_20:\n      tag_21\n      jump\t// in\n    tag_19:\n      stop\n        /* \"part5/contracts/MiniLendingPool.sol\":2501:2605  function getDeposit(address user) external view returns (uint256) {... */\n    tag_6:\n      tag_22\n      0x04\n      dup1\n      calldatasize\n      sub\n      dup2\n      add\n      swap1\n      tag_23\n      swap2\n      swap1\n      tag_24\n      jump\t// in\n    tag_23:\n      tag_25\n      jump\t// in\n    tag_22:\n      mload(0x40)\n      tag_26\n      swap2\n      swap1\n      tag_18\n      jump\t// in\n    tag_26:\n      mload(0x40)\n      dup1\n      swap2\n      sub\n      swap1\n      return\n        /* \"part5/contracts/MiniLendingPool.sol\":413:442  IERC20 public immutable token */\n    tag_7:\n      tag_27\n      tag_28\n      jump\t// in\n    tag_27:\n      mload(0x40)\n      tag_29\n      swap2\n      swap1\n      tag_30\n      jump\t// in\n    tag_29:\n      mload(0x40)\n      dup1\n      swap2\n      sub\n      swap1\n      return\n        /* \"part5/contracts/MiniLendingPool.sol\":594:637  mapping(address => uint256) public deposits */\n    tag_8:\n      tag_31\n      0x04\n      dup1\n      calldatasize\n      sub\n      dup2\n      add\n      swap1\n      tag_32\n      swap2\n      swap1\n      tag_24\n      jump\t// in\n    tag_32:\n      tag_33\n      jump\t// in\n    tag_31:\n      mload(0x40)\n      tag_34\n      swap2\n      swap1\n      tag_18\n      jump\t// in\n    tag_34:\n      mload(0x40)\n      dup1\n      swap2\n      sub\n      swap1\n      return\n        /* \"part5/contracts/MiniLendingPool.sol\":501:530  uint256 public totalDeposited */\n    tag_9:\n      tag_35\n      tag_36\n      jump\t// in\n    tag_35:\n      mload(0x40)\n      tag_37\n      swap2\n      swap1\n      tag_18\n      jump\t// in\n    tag_37:\n      mload(0x40)\n      dup1\n      swap2\n      sub\n      swap1\n      return\n        /* \"part5/contracts/MiniLendingPool.sol\":1812:2336  function withdraw(uint256 amount) external {... */\n    tag_14:\n        /* \"part5/contracts/MiniLendingPool.sol\":1882:1883  0 */\n      0x00\n        /* \"part5/contracts/MiniLendingPool.sol\":1873:1879  amount */\n      dup2\n        /* \"part5/contracts/MiniLendingPool.sol\":1873:1883  amount > 0 */\n      gt\n        /* \"part5/contracts/MiniLendingPool.sol\":1865:1937  require(amount > 0, \"MiniLendingPool: amount must be greater than zero\") */\n      tag_39\n      jumpi\n      mload(0x40)\n      0x08c379a000000000000000000000000000000000000000000000000000000000\n      dup2\n      mstore\n      0x04\n      add\n      tag_40\n      swap1\n      tag_41\n      jump\t// in\n    tag_40:\n      mload(0x40)\n      dup1\n      swap2\n      sub\n      swap1\n      revert\n    tag_39:\n        /* \"part5/contracts/MiniLendingPool.sol\":1979:1985  amount */\n      dup1\n        /* \"part5/contracts/MiniLendingPool.sol\":1955:1963  deposits */\n      0x01\n        /* \"part5/contracts/MiniLendingPool.sol\":1955:1975  deposits[msg.sender] */\n      0x00\n        /* \"part5/contracts/MiniLendingPool.sol\":1964:1974  msg.sender */\n      caller\n        /* \"part5/contracts/MiniLendingPool.sol\":1955:1975  deposits[msg.sender] */\n      0xffffffffffffffffffffffffffffffffffffffff\n      and\n      0xffffffffffffffffffffffffffffffffffffffff\n      and\n      dup2\n      mstore\n      0x20\n      add\n      swap1\n      dup2\n      mstore\n      0x20\n      add\n      0x00\n      keccak256\n      sload\n        /* \"part5/contracts/MiniLendingPool.sol\":1955:1985  deposits[msg.sender] >= amount */\n      lt\n      iszero\n        /* \"part5/contracts/MiniLendingPool.sol\":1947:2027  require(deposits[msg.sender] >= amount, \"MiniLendingPool: insufficient balance\") */\n      tag_42\n      jumpi\n      mload(0x40)\n      0x08c379a000000000000000000000000000000000000000000000000000000000\n      dup2\n      mstore\n      0x04\n      add\n      tag_43\n      swap1\n      tag_44\n      jump\t// in\n    tag_43:\n      mload(0x40)\n      dup1\n      swap2\n      sub\n      swap1\n      revert\n    tag_42:\n        /* \"part5/contracts/MiniLendingPool.sol\":2123:2129  amount */\n      dup1\n        /* \"part5/contracts/MiniLendingPool.sol\":2099:2107  deposits */\n      0x01\n        /* \"part5/contracts/MiniLendingPool.sol\":2099:2119  deposits[msg.sender] */\n      0x00\n        /* \"part5/contracts/MiniLendingPool.sol\":2108:2118  msg.sender */\n      caller\n        /* \"part5/contracts/MiniLendingPool.sol\":2099:2119  deposits[msg.sender] */\n      0xffffffffffffffffffffffffffffffffffffffff\n      and\n      0xffffffffffffffffffffffffffffffffffffffff\n      and\n      dup2\n      mstore\n      0x20\n      add\n      swap1\n      dup2\n      mstore\n      0x20\n      add\n      0x00\n      keccak256\n      0x00\n        /* \"part5/contracts/MiniLendingPool.sol\":2099:2129  deposits[msg.sender] -= amount */\n      dup3\n      dup3\n      sload\n      tag_45\n      swap2\n      swap1\n      tag_46\n      jump\t// in\n    tag_45:\n      swap3\n      pop\n      pop\n      dup2\n      swap1\n      sstore\n      pop\n        /* \"part5/contracts/MiniLendingPool.sol\":2157:2163  amount */\n      dup1\n        /* \"part5/contracts/MiniLendingPool.sol\":2139:2153  totalDeposited */\n      0x00\n      0x00\n        /* \"part5/contracts/MiniLendingPool.sol\":2139:2163  totalDeposited -= amount */\n      dup3\n      dup3\n      sload\n      tag_47\n      swap2\n      swap1\n      tag_46\n      jump\t// in\n    tag_47:\n      swap3\n      pop\n      pop\n      dup2\n      swap1\n      sstore\n      pop\n        /* \"part5/contracts/MiniLendingPool.sol\":2222:2260  token.safeTransfer(msg.sender, amount) */\n      tag_48\n        /* \"part5/contracts/MiniLendingPool.sol\":2241:2251  msg.sender */\n      caller\n        /* \"part5/contracts/MiniLendingPool.sol\":2253:2259  amount */\n      dup3\n        /* \"part5/contracts/MiniLendingPool.sol\":2222:2227  token */\n      immutable(\"0x2eb0a7787e491ea8a1fddc10012f5501bfb04332a2b5dce0f8e4c1196d1a6113\")\n        /* \"part5/contracts/MiniLendingPool.sol\":2222:2240  token.safeTransfer */\n      0xffffffffffffffffffffffffffffffffffffffff\n      and\n      tag_49\n      swap1\n        /* \"part5/contracts/MiniLendingPool.sol\":2222:2260  token.safeTransfer(msg.sender, amount) */\n      swap3\n      swap2\n      swap1\n      0xffffffff\n      and\n      jump\t// in\n    tag_48:\n        /* \"part5/contracts/MiniLendingPool.sol\":2294:2304  msg.sender */\n      caller\n        /* \"part5/contracts/MiniLendingPool.sol\":2284:2329  Withdrawn(msg.sender, amount, totalDeposited) */\n      0xffffffffffffffffffffffffffffffffffffffff\n      and\n      0x92ccf450a286a957af52509bc1c9939d1a6a481783e142e41e2499f0bb66ebc6\n        /* \"part5/contracts/MiniLendingPool.sol\":2306:2312  amount */\n      dup3\n        /* \"part5/contracts/MiniLendingPool.sol\":2314:2328  totalDeposited */\n      sload(0x00)\n        /* \"part5/contracts/MiniLendingPool.sol\":2284:2329  Withdrawn(msg.sender, amount, totalDeposited) */\n      mload(0x40)\n      tag_50\n      swap3\n      swap2\n      swap1\n      tag_51\n      jump\t// in\n    tag_50:\n      mload(0x40)\n      dup1\n      swap2\n      sub\n      swap1\n      log2\n        /* \"part5/contracts/MiniLendingPool.sol\":1812:2336  function withdraw(uint256 amount) external {... */\n      pop\n      jump\t// out\n        /* \"part5/contracts/MiniLendingPool.sol\":2736:2835  function getTotalDeposited() external view returns (uint256) {... */\n    tag_16:\n        /* \"part5/contracts/MiniLendingPool.sol\":2788:2795  uint256 */\n      0x00\n        /* \"part5/contracts/MiniLendingPool.sol\":2814:2828  totalDeposited */\n      sload(0x00)\n        /* \"part5/contracts/MiniLendingPool.sol\":2807:2828  return totalDeposited */\n      swap1\n      pop\n        /* \"part5/contracts/MiniLendingPool.sol\":2736:2835  function getTotalDeposited() external view returns (uint256) {... */\n      swap1\n      jump\t// out\n        /* \"part5/contracts/MiniLendingPool.sol\":1232:1698  function deposit(uint256 amount) external {... */\n    tag_21:\n        /* \"part5/contracts/MiniLendingPool.sol\":1301:1302  0 */\n      0x00\n        /* \"part5/contracts/MiniLendingPool.sol\":1292:1298  amount */\n      dup2\n        /* \"part5/contracts/MiniLendingPool.sol\":1292:1302  amount > 0 */\n      gt\n        /* \"part5/contracts/MiniLendingPool.sol\":1284:1356  require(amount > 0, \"MiniLendingPool: amount must be greater than zero\") */\n      tag_54\n      jumpi\n      mload(0x40)\n      0x08c379a000000000000000000000000000000000000000000000000000000000\n      dup2\n      mstore\n      0x04\n      add\n      tag_55\n      swap1\n      tag_41\n      jump\t// in\n    tag_55:\n      mload(0x40)\n      dup1\n      swap2\n      sub\n      swap1\n      revert\n    tag_54:\n        /* \"part5/contracts/MiniLendingPool.sol\":1429:1486  token.safeTransferFrom(msg.sender, address(this), amount) */\n      tag_56\n        /* \"part5/contracts/MiniLendingPool.sol\":1452:1462  msg.sender */\n      caller\n        /* \"part5/contracts/MiniLendingPool.sol\":1472:1476  this */\n      address\n        /* \"part5/contracts/MiniLendingPool.sol\":1479:1485  amount */\n      dup4\n        /* \"part5/contracts/MiniLendingPool.sol\":1429:1434  token */\n      immutable(\"0x2eb0a7787e491ea8a1fddc10012f5501bfb04332a2b5dce0f8e4c1196d1a6113\")\n        /* \"part5/contracts/MiniLendingPool.sol\":1429:1451  token.safeTransferFrom */\n      0xffffffffffffffffffffffffffffffffffffffff\n      and\n      tag_57\n      swap1\n        /* \"part5/contracts/MiniLendingPool.sol\":1429:1486  token.safeTransferFrom(msg.sender, address(this), amount) */\n      swap4\n      swap3\n      swap2\n      swap1\n      0xffffffff\n      and\n      jump\t// in\n    tag_56:\n        /* \"part5/contracts/MiniLendingPool.sol\":1582:1588  amount */\n      dup1\n        /* \"part5/contracts/MiniLendingPool.sol\":1558:1566  deposits */\n      0x01\n        /* \"part5/contracts/MiniLendingPool.sol\":1558:1578  deposits[msg.sender] */\n      0x00\n        /* \"part5/contracts/MiniLendingPool.sol\":1567:1577  msg.sender */\n      caller\n        /* \"part5/contracts/MiniLendingPool.sol\":1558:1578  deposits[msg.sender] */\n      0xffffffffffffffffffffffffffffffffffffffff\n      and\n      0xffffffffffffffffffffffffffffffffffffffff\n      and\n      dup2\n      mstore\n      0x20\n      add\n      swap1\n      dup2\n      mstore\n      0x20\n      add\n      0x00\n      keccak256\n      0x00\n        /* \"part5/contracts/MiniLendingPool.sol\":1558:1588  deposits[msg.sender] += amount */\n      dup3\n      dup3\n      sload\n      tag_58\n      swap2\n      swap1\n      tag_59\n      jump\t// in\n    tag_58:\n      swap3\n      pop\n      pop\n      dup2\n      swap1\n      sstore\n      pop\n        /* \"part5/contracts/MiniLendingPool.sol\":1616:1622  amount */\n      dup1\n        /* \"part5/contracts/MiniLendingPool.sol\":1598:1612  totalDeposited */\n      0x00\n      0x00\n        /* \"part5/contracts/MiniLendingPool.sol\":1598:1622  totalDeposited += amount */\n      dup3\n      dup3\n      sload\n      tag_60\n      swap2\n      swap1\n      tag_59\n      jump\t// in\n    tag_60:\n      swap3\n      pop\n      pop\n      dup2\n      swap1\n      sstore\n      pop\n        /* \"part5/contracts/MiniLendingPool.sol\":1656:1666  msg.sender */\n      caller\n        /* \"part5/contracts/MiniLendingPool.sol\":1646:1691  Deposited(msg.sender, amount, totalDeposited) */\n      0xffffffffffffffffffffffffffffffffffffffff\n      and\n      0x73a19dd210f1a7f902193214c0ee91dd35ee5b4d920cba8d519eca65a7b488ca\n        /* \"part5/contracts/MiniLendingPool.sol\":1668:1674  amount */\n      dup3\n        /* \"part5/contracts/MiniLendingPool.sol\":1676:1690  totalDeposited */\n      sload(0x00)\n        /* \"part5/contracts/MiniLendingPool.sol\":1646:1691  Deposited(msg.sender, amount, totalDeposited) */\n      mload(0x40)\n      tag_61\n      swap3\n      swap2\n      swap1\n      tag_51\n      jump\t// in\n    tag_61:\n      mload(0x40)\n      dup1\n      swap2\n      sub\n      swap1\n      log2\n        /* \"part5/contracts/MiniLendingPool.sol\":1232:1698  function deposit(uint256 amount) external {... */\n      pop\n      jump\t// out\n        /* \"part5/contracts/MiniLendingPool.sol\":2501:2605  function getDeposit(address user) external view returns (uint256) {... */\n    tag_25:\n        /* \"part5/contracts/MiniLendingPool.sol\":2558:2565  uint256 */\n      0x00\n        /* \"part5/contracts/MiniLendingPool.sol\":2584:2592  deposits */\n      0x01\n        /* \"part5/contracts/MiniLendingPool.sol\":2584:2598  deposits[user] */\n      0x00\n        /* \"part5/contracts/MiniLendingPool.sol\":2593:2597  user */\n      dup4\n        /* \"part5/contracts/MiniLendingPool.sol\":2584:2598  deposits[user] */\n      0xffffffffffffffffffffffffffffffffffffffff\n      and\n      0xffffffffffffffffffffffffffffffffffffffff\n      and\n      dup2\n      mstore\n      0x20\n      add\n      swap1\n      dup2\n      mstore\n      0x20\n      add\n      0x00\n      keccak256\n      sload\n        /* \"part5/contracts/MiniLendingPool.sol\":2577:2598  return deposits[user] */\n      swap1\n      pop\n        /* \"part5/contracts/MiniLendingPool.sol\":2501:2605  function getDeposit(address user) external view returns (uint256) {... */\n      swap2\n      swap1\n      pop\n      jump\t// out\n        /* \"part5/contracts/MiniLendingPool.sol\":413:442  IERC20 public immutable token */\n    tag_28:\n      immutable(\"0x2eb0a7787e491ea8a1fddc10012f5501bfb04332a2b5dce0f8e4c1196d1a6113\")\n      dup2\n      jump\t// out\n        /* \"part5/contracts/MiniLendingPool.sol\":594:637  mapping(address => uint256) public deposits */\n    tag_33:\n      mstore(0x20, 0x01)\n      dup1\n      0x00\n      mstore\n      keccak256(0x00, 0x40)\n      0x00\n      swap2\n      pop\n      swap1\n      pop\n      sload\n      dup2\n      jump\t// out\n        /* \"part5/contracts/MiniLendingPool.sol\":501:530  uint256 public totalDeposited */\n    tag_36:\n      sload(0x00)\n      dup2\n      jump\t// out\n        /* \"@openzeppelin/contracts/token/ERC20/utils/SafeERC20.sol\":1219:1379  function safeTransfer(IERC20 token, address to, uint256 value) internal {... */\n    tag_49:\n        /* \"@openzeppelin/contracts/token/ERC20/utils/SafeERC20.sol\":1301:1372  _callOptionalReturn(token, abi.encodeCall(token.transfer, (to, value))) */\n      tag_64\n        /* \"@openzeppelin/contracts/token/ERC20/utils/SafeERC20.sol\":1321:1326  token */\n      dup4\n        /* \"@openzeppelin/contracts/token/ERC20/utils/SafeERC20.sol\":1343:1348  token */\n      dup5\n        /* \"@openzeppelin/contracts/token/ERC20/utils/SafeERC20.sol\":1343:1357  token.transfer */\n      0xffffffffffffffffffffffffffffffffffffffff\n      and\n      0xa9059cbb\n        /* \"@openzeppelin/contracts/token/ERC20/utils/SafeERC20.sol\":1360:1362  to */\n      dup6\n        /* \"@openzeppelin/contracts/token/ERC20/utils/SafeERC20.sol\":1364:1369  value */\n      dup6\n        /* \"@openzeppelin/contracts/token/ERC20/utils/SafeERC20.sol\":1328:1371  abi.encodeCall(token.transfer, (to, value)) */\n      add(0x24, mload(0x40))\n      tag_65\n      swap3\n      swap2\n      swap1\n      tag_66\n      jump\t// in\n    tag_65:\n      mload(0x40)\n      0x20\n      dup2\n      dup4\n      sub\n      sub\n      dup2\n      mstore\n      swap1\n      0x40\n      mstore\n      swap2\n      pop\n      0xe0\n      shl\n      0x20\n      dup3\n      add\n      dup1\n      mload\n      0xffffffffffffffffffffffffffffffffffffffffffffffffffffffff\n      dup4\n      dup2\n      dup4\n      and\n      or\n      dup4\n      mstore\n      pop\n      pop\n      pop\n      pop\n        /* \"@openzeppelin/contracts/token/ERC20/utils/SafeERC20.sol\":1301:1320  _callOptionalReturn */\n      tag_67\n        /* \"@openzeppelin/contracts/token/ERC20/utils/SafeERC20.sol\":1301:1372  _callOptionalReturn(token, abi.encodeCall(token.transfer, (to, value))) */\n      jump\t// in\n    tag_64:\n        /* \"@openzeppelin/contracts/token/ERC20/utils/SafeERC20.sol\":1219:1379  function safeTransfer(IERC20 token, address to, uint256 value) internal {... */\n      pop\n      pop\n      pop\n      jump\t// out\n        /* \"@openzeppelin/contracts/token/ERC20/utils/SafeERC20.sol\":1618:1806  function safeTransferFrom(IERC20 token, address from, address to, uint256 value) internal {... */\n    tag_57:\n        /* \"@openzeppelin/contracts/token/ERC20/utils/SafeERC20.sol\":1718:1799  _callOptionalReturn(token, abi.encodeCall(token.transferFrom, (from, to, value))) */\n      tag_69\n        /* \"@openzeppelin/contracts/token/ERC20/utils/SafeERC20.sol\":1738:1743  token */\n      dup5\n        /* \"@openzeppelin/contracts/token/ERC20/utils/SafeERC20.sol\":1760:1765  token */\n      dup6\n        /* \"@openzeppelin/contracts/token/ERC20/utils/SafeERC20.sol\":1760:1778  token.transferFrom */\n      0xffffffffffffffffffffffffffffffffffffffff\n      and\n      0x23b872dd\n        /* \"@openzeppelin/contracts/token/ERC20/utils/SafeERC20.sol\":1781:1785  from */\n      dup7\n        /* \"@openzeppelin/contracts/token/ERC20/utils/SafeERC20.sol\":1787:1789  to */\n      dup7\n        /* \"@openzeppelin/contracts/token/ERC20/utils/SafeERC20.sol\":1791:1796  value */\n      dup7\n        /* \"@openzeppelin/contracts/token/ERC20/utils/SafeERC20.sol\":1745:1798  abi.encodeCall(token.transferFrom, (from, to, value)) */\n      add(0x24, mload(0x40))\n      tag_70\n      swap4\n      swap3\n      swap2\n      swap1\n      tag_71\n      jump\t// in\n    tag_70:\n      mload(0x40)\n      0x20\n      dup2\n      dup4\n      sub\n      sub\n      dup2\n      mstore\n      swap1\n      0x40\n      mstore\n      swap2\n      pop\n      0xe0\n      shl\n      0x20\n      dup3\n      add\n      dup1\n      mload\n      0xffffffffffffffffffffffffffffffffffffffffffffffffffffffff\n      dup4\n      dup2\n      dup4\n      and\n      or\n      dup4\n      mstore\n      pop\n      pop\n      pop\n      pop\n        /* \"@openzeppelin/contracts/token/ERC20/utils/SafeERC20.sol\":1718:1737  _callOptionalReturn */\n      tag_67\n        /* \"@openzeppelin/contracts/token/ERC20/utils/SafeERC20.sol\":1718:1799  _callOptionalReturn(token, abi.encodeCall(token.transferFrom, (from, to, value))) */\n      jump\t// in\n    tag_69:\n        /* \"@openzeppelin/contracts/token/ERC20/utils/SafeERC20.sol\":1618:1806  function safeTransferFrom(IERC20 token, address from, address to, uint256 value) internal {... */\n      pop\n      pop\n      pop\n      pop\n      jump\t// out\n        /* \"@openzeppelin/contracts/token/ERC20/utils/SafeERC20.sol\":8370:9090  function _callOptionalReturn(IERC20 token, bytes memory data) private {... */\n    tag_67:\n        /* \"@openzeppelin/contracts/token/ERC20/utils/SafeERC20.sol\":8450:8468  uint256 returnSize */\n      0x00\n        /* \"@openzeppelin/contracts/token/ERC20/utils/SafeERC20.sol\":8478:8497  uint256 returnValue */\n      0x00\n        /* \"@openzeppelin/contracts/token/ERC20/utils/SafeERC20.sol\":8616:8620  0x20 */\n      0x20\n        /* \"@openzeppelin/contracts/token/ERC20/utils/SafeERC20.sol\":8613:8614  0 */\n      0x00\n        /* \"@openzeppelin/contracts/token/ERC20/utils/SafeERC20.sol\":8606:8610  data */\n      dup5\n        /* \"@openzeppelin/contracts/token/ERC20/utils/SafeERC20.sol\":8600:8611  mload(data) */\n      mload\n        /* \"@openzeppelin/contracts/token/ERC20/utils/SafeERC20.sol\":8593:8597  0x20 */\n      0x20\n        /* \"@openzeppelin/contracts/token/ERC20/utils/SafeERC20.sol\":8587:8591  data */\n      dup7\n        /* \"@openzeppelin/contracts/token/ERC20/utils/SafeERC20.sol\":8583:8598  add(data, 0x20) */\n      add\n        /* \"@openzeppelin/contracts/token/ERC20/utils/SafeERC20.sol\":8580:8581  0 */\n      0x00\n        /* \"@openzeppelin/contracts/token/ERC20/utils/SafeERC20.sol\":8573:8578  token */\n      dup9\n        /* \"@openzeppelin/contracts/token/ERC20/utils/SafeERC20.sol\":8566:8571  gas() */\n      gas\n        /* \"@openzeppelin/contracts/token/ERC20/utils/SafeERC20.sol\":8561:8621  call(gas(), token, 0, add(data, 0x20), mload(data), 0, 0x20) */\n      call\n        /* \"@openzeppelin/contracts/token/ERC20/utils/SafeERC20.sol\":8673:8680  success */\n      dup1\n        /* \"@openzeppelin/contracts/token/ERC20/utils/SafeERC20.sol\":8663:8839  if iszero(success) {... */\n      tag_73\n      jumpi\n        /* \"@openzeppelin/contracts/token/ERC20/utils/SafeERC20.sol\":8717:8721  0x40 */\n      0x40\n        /* \"@openzeppelin/contracts/token/ERC20/utils/SafeERC20.sol\":8711:8722  mload(0x40) */\n      mload\n        /* \"@openzeppelin/contracts/token/ERC20/utils/SafeERC20.sol\":8762:8778  returndatasize() */\n      returndatasize\n        /* \"@openzeppelin/contracts/token/ERC20/utils/SafeERC20.sol\":8759:8760  0 */\n      0x00\n        /* \"@openzeppelin/contracts/token/ERC20/utils/SafeERC20.sol\":8754:8757  ptr */\n      dup3\n        /* \"@openzeppelin/contracts/token/ERC20/utils/SafeERC20.sol\":8739:8779  returndatacopy(ptr, 0, returndatasize()) */\n      returndatacopy\n        /* \"@openzeppelin/contracts/token/ERC20/utils/SafeERC20.sol\":8808:8824  returndatasize() */\n      returndatasize\n        /* \"@openzeppelin/contracts/token/ERC20/utils/SafeERC20.sol\":8803:8806  ptr */\n      dup2\n        /* \"@openzeppelin/contracts/token/ERC20/utils/SafeERC20.sol\":8796:8825  revert(ptr, returndatasize()) */\n      revert\n        /* \"@openzeppelin/contracts/token/ERC20/utils/SafeERC20.sol\":8663:8839  if iszero(success) {... */\n    tag_73:\n        /* \"@openzeppelin/contracts/token/ERC20/utils/SafeERC20.sol\":8866:8882  returndatasize() */\n      returndatasize\n        /* \"@openzeppelin/contracts/token/ERC20/utils/SafeERC20.sol\":8852:8882  returnSize := returndatasize() */\n      swap3\n      pop\n        /* \"@openzeppelin/contracts/token/ERC20/utils/SafeERC20.sol\":8916:8917  0 */\n      0x00\n        /* \"@openzeppelin/contracts/token/ERC20/utils/SafeERC20.sol\":8910:8918  mload(0) */\n      mload\n        /* \"@openzeppelin/contracts/token/ERC20/utils/SafeERC20.sol\":8895:8918  returnValue := mload(0) */\n      swap2\n      pop\n        /* \"@openzeppelin/contracts/token/ERC20/utils/SafeERC20.sol\":8532:8928  {... */\n      pop\n        /* \"@openzeppelin/contracts/token/ERC20/utils/SafeERC20.sol\":8956:8957  0 */\n      0x00\n        /* \"@openzeppelin/contracts/token/ERC20/utils/SafeERC20.sol\":8942:8952  returnSize */\n      dup3\n        /* \"@openzeppelin/contracts/token/ERC20/utils/SafeERC20.sol\":8942:8957  returnSize == 0 */\n      eq\n        /* \"@openzeppelin/contracts/token/ERC20/utils/SafeERC20.sol\":8942:9010  returnSize == 0 ? address(token).code.length == 0 : returnValue != 1 */\n      tag_74\n      jumpi\n        /* \"@openzeppelin/contracts/token/ERC20/utils/SafeERC20.sol\":9009:9010  1 */\n      0x01\n        /* \"@openzeppelin/contracts/token/ERC20/utils/SafeERC20.sol\":8994:9005  returnValue */\n      dup2\n        /* \"@openzeppelin/contracts/token/ERC20/utils/SafeERC20.sol\":8994:9010  returnValue != 1 */\n      eq\n      iszero\n        /* \"@openzeppelin/contracts/token/ERC20/utils/SafeERC20.sol\":8942:9010  returnSize == 0 ? address(token).code.length == 0 : returnValue != 1 */\n      jump(tag_75)\n    tag_74:\n        /* \"@openzeppelin/contracts/token/ERC20/utils/SafeERC20.sol\":8990:8991  0 */\n      0x00\n        /* \"@openzeppelin/contracts/token/ERC20/utils/SafeERC20.sol\":8968:8973  token */\n      dup5\n        /* \"@openzeppelin/contracts/token/ERC20/utils/SafeERC20.sol\":8960:8986  address(token).code.length */\n      0xffffffffffffffffffffffffffffffffffffffff\n      and\n      extcodesize\n        /* \"@openzeppelin/contracts/token/ERC20/utils/SafeERC20.sol\":8960:8991  address(token).code.length == 0 */\n      eq\n        /* \"@openzeppelin/contracts/token/ERC20/utils/SafeERC20.sol\":8942:9010  returnSize == 0 ? address(token).code.length == 0 : returnValue != 1 */\n    tag_75:\n        /* \"@openzeppelin/contracts/token/ERC20/utils/SafeERC20.sol\":8938:9084  if (returnSize == 0 ? address(token).code.length == 0 : returnValue != 1) {... */\n      iszero\n      tag_76\n      jumpi\n        /* \"@openzeppelin/contracts/token/ERC20/utils/SafeERC20.sol\":9066:9071  token */\n      dup4\n        /* \"@openzeppelin/contracts/token/ERC20/utils/SafeERC20.sol\":9033:9073  SafeERC20FailedOperation(address(token)) */\n      mload(0x40)\n      0x5274afe700000000000000000000000000000000000000000000000000000000\n      dup2\n      mstore\n      0x04\n      add\n      tag_77\n      swap2\n      swap1\n      tag_78\n      jump\t// in\n    tag_77:\n      mload(0x40)\n      dup1\n      swap2\n      sub\n      swap1\n      revert\n        /* \"@openzeppelin/contracts/token/ERC20/utils/SafeERC20.sol\":8938:9084  if (returnSize == 0 ? address(token).code.length == 0 : returnValue != 1) {... */\n    tag_76:\n        /* \"@openzeppelin/contracts/token/ERC20/utils/SafeERC20.sol\":8440:9090  {... */\n      pop\n      pop\n        /* \"@openzeppelin/contracts/token/ERC20/utils/SafeERC20.sol\":8370:9090  function _callOptionalReturn(IERC20 token, bytes memory data) private {... */\n      pop\n      pop\n      jump\t// out\n        /* \"#utility.yul\":88:205   */\n    tag_80:\n        /* \"#utility.yul\":197:198   */\n      0x00\n        /* \"#utility.yul\":194:195   */\n      0x00\n        /* \"#utility.yul\":187:199   */\n      revert\n        /* \"#utility.yul\":334:411   */\n    tag_82:\n        /* \"#utility.yul\":371:378   */\n      0x00\n        /* \"#utility.yul\":400:405   */\n      dup2\n        /* \"#utility.yul\":389:405   */\n      swap1\n      pop\n        /* \"#utility.yul\":334:411   */\n      swap2\n      swap1\n      pop\n      jump\t// out\n        /* \"#utility.yul\":417:539   */\n    tag_83:\n        /* \"#utility.yul\":490:514   */\n      tag_108\n        /* \"#utility.yul\":508:513   */\n      dup2\n        /* \"#utility.yul\":490:514   */\n      tag_82\n      jump\t// in\n    tag_108:\n        /* \"#utility.yul\":483:488   */\n      dup2\n        /* \"#utility.yul\":480:515   */\n      eq\n        /* \"#utility.yul\":470:533   */\n      tag_109\n      jumpi\n        /* \"#utility.yul\":529:530   */\n      0x00\n        /* \"#utility.yul\":526:527   */\n      0x00\n        /* \"#utility.yul\":519:531   */\n      revert\n        /* \"#utility.yul\":470:533   */\n    tag_109:\n        /* \"#utility.yul\":417:539   */\n      pop\n      jump\t// out\n        /* \"#utility.yul\":545:684   */\n    tag_84:\n        /* \"#utility.yul\":591:596   */\n      0x00\n        /* \"#utility.yul\":629:635   */\n      dup2\n        /* \"#utility.yul\":616:636   */\n      calldataload\n        /* \"#utility.yul\":607:636   */\n      swap1\n      pop\n        /* \"#utility.yul\":645:678   */\n      tag_111\n        /* \"#utility.yul\":672:677   */\n      dup2\n        /* \"#utility.yul\":645:678   */\n      tag_83\n      jump\t// in\n    tag_111:\n        /* \"#utility.yul\":545:684   */\n      swap3\n      swap2\n      pop\n      pop\n      jump\t// out\n        /* \"#utility.yul\":690:1019   */\n    tag_13:\n        /* \"#utility.yul\":749:755   */\n      0x00\n        /* \"#utility.yul\":798:800   */\n      0x20\n        /* \"#utility.yul\":786:795   */\n      dup3\n        /* \"#utility.yul\":777:784   */\n      dup5\n        /* \"#utility.yul\":773:796   */\n      sub\n        /* \"#utility.yul\":769:801   */\n      slt\n        /* \"#utility.yul\":766:885   */\n      iszero\n      tag_113\n      jumpi\n        /* \"#utility.yul\":804:883   */\n      tag_114\n      tag_80\n      jump\t// in\n    tag_114:\n        /* \"#utility.yul\":766:885   */\n    tag_113:\n        /* \"#utility.yul\":924:925   */\n      0x00\n        /* \"#utility.yul\":949:1002   */\n      tag_115\n        /* \"#utility.yul\":994:1001   */\n      dup5\n        /* \"#utility.yul\":985:991   */\n      dup3\n        /* \"#utility.yul\":974:983   */\n      dup6\n        /* \"#utility.yul\":970:992   */\n      add\n        /* \"#utility.yul\":949:1002   */\n      tag_84\n      jump\t// in\n    tag_115:\n        /* \"#utility.yul\":939:1002   */\n      swap2\n      pop\n        /* \"#utility.yul\":895:1012   */\n      pop\n        /* \"#utility.yul\":690:1019   */\n      swap3\n      swap2\n      pop\n      pop\n      jump\t// out\n        /* \"#utility.yul\":1025:1143   */\n    tag_85:\n        /* \"#utility.yul\":1112:1136   */\n      tag_117\n        /* \"#utility.yul\":1130:1135   */\n      dup2\n        /* \"#utility.yul\":1112:1136   */\n      tag_82\n      jump\t// in\n    tag_117:\n        /* \"#utility.yul\":1107:1110   */\n      dup3\n        /* \"#utility.yul\":1100:1137   */\n      mstore\n        /* \"#utility.yul\":1025:1143   */\n      pop\n      pop\n      jump\t// out\n        /* \"#utility.yul\":1149:1371   */\n    tag_18:\n        /* \"#utility.yul\":1242:1246   */\n      0x00\n        /* \"#utility.yul\":1280:1282   */\n      0x20\n        /* \"#utility.yul\":1269:1278   */\n      dup3\n        /* \"#utility.yul\":1265:1283   */\n      add\n        /* \"#utility.yul\":1257:1283   */\n      swap1\n      pop\n        /* \"#utility.yul\":1293:1364   */\n      tag_119\n        /* \"#utility.yul\":1361:1362   */\n      0x00\n        /* \"#utility.yul\":1350:1359   */\n      dup4\n        /* \"#utility.yul\":1346:1363   */\n      add\n        /* \"#utility.yul\":1337:1343   */\n      dup5\n        /* \"#utility.yul\":1293:1364   */\n      tag_85\n      jump\t// in\n    tag_119:\n        /* \"#utility.yul\":1149:1371   */\n      swap3\n      swap2\n      pop\n      pop\n      jump\t// out\n        /* \"#utility.yul\":1377:1503   */\n    tag_86:\n        /* \"#utility.yul\":1414:1421   */\n      0x00\n        /* \"#utility.yul\":1454:1496   */\n      0xffffffffffffffffffffffffffffffffffffffff\n        /* \"#utility.yul\":1447:1452   */\n      dup3\n        /* \"#utility.yul\":1443:1497   */\n      and\n        /* \"#utility.yul\":1432:1497   */\n      swap1\n      pop\n        /* \"#utility.yul\":1377:1503   */\n      swap2\n      swap1\n      pop\n      jump\t// out\n        /* \"#utility.yul\":1509:1605   */\n    tag_87:\n        /* \"#utility.yul\":1546:1553   */\n      0x00\n        /* \"#utility.yul\":1575:1599   */\n      tag_122\n        /* \"#utility.yul\":1593:1598   */\n      dup3\n        /* \"#utility.yul\":1575:1599   */\n      tag_86\n      jump\t// in\n    tag_122:\n        /* \"#utility.yul\":1564:1599   */\n      swap1\n      pop\n        /* \"#utility.yul\":1509:1605   */\n      swap2\n      swap1\n      pop\n      jump\t// out\n        /* \"#utility.yul\":1611:1733   */\n    tag_88:\n        /* \"#utility.yul\":1684:1708   */\n      tag_124\n        /* \"#utility.yul\":1702:1707   */\n      dup2\n        /* \"#utility.yul\":1684:1708   */\n      tag_87\n      jump\t// in\n    tag_124:\n        /* \"#utility.yul\":1677:1682   */\n      dup2\n        /* \"#utility.yul\":1674:1709   */\n      eq\n        /* \"#utility.yul\":1664:1727   */\n      tag_125\n      jumpi\n        /* \"#utility.yul\":1723:1724   */\n      0x00\n        /* \"#utility.yul\":1720:1721   */\n      0x00\n        /* \"#utility.yul\":1713:1725   */\n      revert\n        /* \"#utility.yul\":1664:1727   */\n    tag_125:\n        /* \"#utility.yul\":1611:1733   */\n      pop\n      jump\t// out\n        /* \"#utility.yul\":1739:1878   */\n    tag_89:\n        /* \"#utility.yul\":1785:1790   */\n      0x00\n        /* \"#utility.yul\":1823:1829   */\n      dup2\n        /* \"#utility.yul\":1810:1830   */\n      calldataload\n        /* \"#utility.yul\":1801:1830   */\n      swap1\n      pop\n        /* \"#utility.yul\":1839:1872   */\n      tag_127\n        /* \"#utility.yul\":1866:1871   */\n      dup2\n        /* \"#utility.yul\":1839:1872   */\n      tag_88\n      jump\t// in\n    tag_127:\n        /* \"#utility.yul\":1739:1878   */\n      swap3\n      swap2\n      pop\n      pop\n      jump\t// out\n        /* \"#utility.yul\":1884:2213   */\n    tag_24:\n        /* \"#utility.yul\":1943:1949   */\n      0x00\n        /* \"#utility.yul\":1992:1994   */\n      0x20\n        /* \"#utility.yul\":1980:1989   */\n      dup3\n        /* \"#utility.yul\":1971:1978   */\n      dup5\n        /* \"#utility.yul\":1967:1990   */\n      sub\n        /* \"#utility.yul\":1963:1995   */\n      slt\n        /* \"#utility.yul\":1960:2079   */\n      iszero\n      tag_129\n      jumpi\n        /* \"#utility.yul\":1998:2077   */\n      tag_130\n      tag_80\n      jump\t// in\n    tag_130:\n        /* \"#utility.yul\":1960:2079   */\n    tag_129:\n        /* \"#utility.yul\":2118:2119   */\n      0x00\n        /* \"#utility.yul\":2143:2196   */\n      tag_131\n        /* \"#utility.yul\":2188:2195   */\n      dup5\n        /* \"#utility.yul\":2179:2185   */\n      dup3\n        /* \"#utility.yul\":2168:2177   */\n      dup6\n        /* \"#utility.yul\":2164:2186   */\n      add\n        /* \"#utility.yul\":2143:2196   */\n      tag_89\n      jump\t// in\n    tag_131:\n        /* \"#utility.yul\":2133:2196   */\n      swap2\n      pop\n        /* \"#utility.yul\":2089:2206   */\n      pop\n        /* \"#utility.yul\":1884:2213   */\n      swap3\n      swap2\n      pop\n      pop\n      jump\t// out\n        /* \"#utility.yul\":2219:2279   */\n    tag_90:\n        /* \"#utility.yul\":2247:2250   */\n      0x00\n        /* \"#utility.yul\":2268:2273   */\n      dup2\n        /* \"#utility.yul\":2261:2273   */\n      swap1\n      pop\n        /* \"#utility.yul\":2219:2279   */\n      swap2\n      swap1\n      pop\n      jump\t// out\n        /* \"#utility.yul\":2285:2427   */\n    tag_91:\n        /* \"#utility.yul\":2335:2344   */\n      0x00\n        /* \"#utility.yul\":2368:2421   */\n      tag_134\n        /* \"#utility.yul\":2386:2420   */\n      tag_135\n        /* \"#utility.yul\":2395:2419   */\n      tag_136\n        /* \"#utility.yul\":2413:2418   */\n      dup5\n        /* \"#utility.yul\":2395:2419   */\n      tag_86\n      jump\t// in\n    tag_136:\n        /* \"#utility.yul\":2386:2420   */\n      tag_90\n      jump\t// in\n    tag_135:\n        /* \"#utility.yul\":2368:2421   */\n      tag_86\n      jump\t// in\n    tag_134:\n        /* \"#utility.yul\":2355:2421   */\n      swap1\n      pop\n        /* \"#utility.yul\":2285:2427   */\n      swap2\n      swap1\n      pop\n      jump\t// out\n        /* \"#utility.yul\":2433:2559   */\n    tag_92:\n        /* \"#utility.yul\":2483:2492   */\n      0x00\n        /* \"#utility.yul\":2516:2553   */\n      tag_138\n        /* \"#utility.yul\":2547:2552   */\n      dup3\n        /* \"#utility.yul\":2516:2553   */\n      tag_91\n      jump\t// in\n    tag_138:\n        /* \"#utility.yul\":2503:2553   */\n      swap1\n      pop\n        /* \"#utility.yul\":2433:2559   */\n      swap2\n      swap1\n      pop\n      jump\t// out\n        /* \"#utility.yul\":2565:2705   */\n    tag_93:\n        /* \"#utility.yul\":2629:2638   */\n      0x00\n        /* \"#utility.yul\":2662:2699   */\n      tag_140\n        /* \"#utility.yul\":2693:2698   */\n      dup3\n        /* \"#utility.yul\":2662:2699   */\n      tag_92\n      jump\t// in\n    tag_140:\n        /* \"#utility.yul\":2649:2699   */\n      swap1\n      pop\n        /* \"#utility.yul\":2565:2705   */\n      swap2\n      swap1\n      pop\n      jump\t// out\n        /* \"#utility.yul\":2711:2870   */\n    tag_94:\n        /* \"#utility.yul\":2812:2863   */\n      tag_142\n        /* \"#utility.yul\":2857:2862   */\n      dup2\n        /* \"#utility.yul\":2812:2863   */\n      tag_93\n      jump\t// in\n    tag_142:\n        /* \"#utility.yul\":2807:2810   */\n      dup3\n        /* \"#utility.yul\":2800:2864   */\n      mstore\n        /* \"#utility.yul\":2711:2870   */\n      pop\n      pop\n      jump\t// out\n        /* \"#utility.yul\":2876:3126   */\n    tag_30:\n        /* \"#utility.yul\":2983:2987   */\n      0x00\n        /* \"#utility.yul\":3021:3023   */\n      0x20\n        /* \"#utility.yul\":3010:3019   */\n      dup3\n        /* \"#utility.yul\":3006:3024   */\n      add\n        /* \"#utility.yul\":2998:3024   */\n      swap1\n      pop\n        /* \"#utility.yul\":3034:3119   */\n      tag_144\n        /* \"#utility.yul\":3116:3117   */\n      0x00\n        /* \"#utility.yul\":3105:3114   */\n      dup4\n        /* \"#utility.yul\":3101:3118   */\n      add\n        /* \"#utility.yul\":3092:3098   */\n      dup5\n        /* \"#utility.yul\":3034:3119   */\n      tag_94\n      jump\t// in\n    tag_144:\n        /* \"#utility.yul\":2876:3126   */\n      swap3\n      swap2\n      pop\n      pop\n      jump\t// out\n        /* \"#utility.yul\":3132:3301   */\n    tag_95:\n        /* \"#utility.yul\":3216:3227   */\n      0x00\n        /* \"#utility.yul\":3250:3256   */\n      dup3\n        /* \"#utility.yul\":3245:3248   */\n      dup3\n        /* \"#utility.yul\":3238:3257   */\n      mstore\n        /* \"#utility.yul\":3290:3294   */\n      0x20\n        /* \"#utility.yul\":3285:3288   */\n      dup3\n        /* \"#utility.yul\":3281:3295   */\n      add\n        /* \"#utility.yul\":3266:3295   */\n      swap1\n      pop\n        /* \"#utility.yul\":3132:3301   */\n      swap3\n      swap2\n      pop\n      pop\n      jump\t// out\n        /* \"#utility.yul\":3307:3543   */\n    tag_96:\n        /* \"#utility.yul\":3447:3481   */\n      0x4d696e694c656e64696e67506f6f6c3a20616d6f756e74206d75737420626520\n        /* \"#utility.yul\":3443:3444   */\n      0x00\n        /* \"#utility.yul\":3435:3441   */\n      dup3\n        /* \"#utility.yul\":3431:3445   */\n      add\n        /* \"#utility.yul\":3424:3482   */\n      mstore\n        /* \"#utility.yul\":3516:3535   */\n      0x67726561746572207468616e207a65726f000000000000000000000000000000\n        /* \"#utility.yul\":3511:3513   */\n      0x20\n        /* \"#utility.yul\":3503:3509   */\n      dup3\n        /* \"#utility.yul\":3499:3514   */\n      add\n        /* \"#utility.yul\":3492:3536   */\n      mstore\n        /* \"#utility.yul\":3307:3543   */\n      pop\n      jump\t// out\n        /* \"#utility.yul\":3549:3915   */\n    tag_97:\n        /* \"#utility.yul\":3691:3694   */\n      0x00\n        /* \"#utility.yul\":3712:3779   */\n      tag_148\n        /* \"#utility.yul\":3776:3778   */\n      0x31\n        /* \"#utility.yul\":3771:3774   */\n      dup4\n        /* \"#utility.yul\":3712:3779   */\n      tag_95\n      jump\t// in\n    tag_148:\n        /* \"#utility.yul\":3705:3779   */\n      swap2\n      pop\n        /* \"#utility.yul\":3788:3881   */\n      tag_149\n        /* \"#utility.yul\":3877:3880   */\n      dup3\n        /* \"#utility.yul\":3788:3881   */\n      tag_96\n      jump\t// in\n    tag_149:\n        /* \"#utility.yul\":3906:3908   */\n      0x40\n        /* \"#utility.yul\":3901:3904   */\n      dup3\n        /* \"#utility.yul\":3897:3909   */\n      add\n        /* \"#utility.yul\":3890:3909   */\n      swap1\n      pop\n        /* \"#utility.yul\":3549:3915   */\n      swap2\n      swap1\n      pop\n      jump\t// out\n        /* \"#utility.yul\":3921:4340   */\n    tag_41:\n        /* \"#utility.yul\":4087:4091   */\n      0x00\n        /* \"#utility.yul\":4125:4127   */\n      0x20\n        /* \"#utility.yul\":4114:4123   */\n      dup3\n        /* \"#utility.yul\":4110:4128   */\n      add\n        /* \"#utility.yul\":4102:4128   */\n      swap1\n      pop\n        /* \"#utility.yul\":4174:4183   */\n      dup2\n        /* \"#utility.yul\":4168:4172   */\n      dup2\n        /* \"#utility.yul\":4164:4184   */\n      sub\n        /* \"#utility.yul\":4160:4161   */\n      0x00\n        /* \"#utility.yul\":4149:4158   */\n      dup4\n        /* \"#utility.yul\":4145:4162   */\n      add\n        /* \"#utility.yul\":4138:4185   */\n      mstore\n        /* \"#utility.yul\":4202:4333   */\n      tag_151\n        /* \"#utility.yul\":4328:4332   */\n      dup2\n        /* \"#utility.yul\":4202:4333   */\n      tag_97\n      jump\t// in\n    tag_151:\n        /* \"#utility.yul\":4194:4333   */\n      swap1\n      pop\n        /* \"#utility.yul\":3921:4340   */\n      swap2\n      swap1\n      pop\n      jump\t// out\n        /* \"#utility.yul\":4346:4570   */\n    tag_98:\n        /* \"#utility.yul\":4486:4520   */\n      0x4d696e694c656e64696e67506f6f6c3a20696e73756666696369656e74206261\n        /* \"#utility.yul\":4482:4483   */\n      0x00\n        /* \"#utility.yul\":4474:4480   */\n      dup3\n        /* \"#utility.yul\":4470:4484   */\n      add\n        /* \"#utility.yul\":4463:4521   */\n      mstore\n        /* \"#utility.yul\":4555:4562   */\n      0x6c616e6365000000000000000000000000000000000000000000000000000000\n        /* \"#utility.yul\":4550:4552   */\n      0x20\n        /* \"#utility.yul\":4542:4548   */\n      dup3\n        /* \"#utility.yul\":4538:4553   */\n      add\n        /* \"#utility.yul\":4531:4563   */\n      mstore\n        /* \"#utility.yul\":4346:4570   */\n      pop\n      jump\t// out\n        /* \"#utility.yul\":4576:4942   */\n    tag_99:\n        /* \"#utility.yul\":4718:4721   */\n      0x00\n        /* \"#utility.yul\":4739:4806   */\n      tag_154\n        /* \"#utility.yul\":4803:4805   */\n      0x25\n        /* \"#utility.yul\":4798:4801   */\n      dup4\n        /* \"#utility.yul\":4739:4806   */\n      tag_95\n      jump\t// in\n    tag_154:\n        /* \"#utility.yul\":4732:4806   */\n      swap2\n      pop\n        /* \"#utility.yul\":4815:4908   */\n      tag_155\n        /* \"#utility.yul\":4904:4907   */\n      dup3\n        /* \"#utility.yul\":4815:4908   */\n      tag_98\n      jump\t// in\n    tag_155:\n        /* \"#utility.yul\":4933:4935   */\n      0x40\n        /* \"#utility.yul\":4928:4931   */\n      dup3\n        /* \"#utility.yul\":4924:4936   */\n      add\n        /* \"#utility.yul\":4917:4936   */\n      swap1\n      pop\n        /* \"#utility.yul\":4576:4942   */\n      swap2\n      swap1\n      pop\n      jump\t// out\n        /* \"#utility.yul\":4948:5367   */\n    tag_44:\n        /* \"#utility.yul\":5114:5118   */\n      0x00\n        /* \"#utility.yul\":5152:5154   */\n      0x20\n        /* \"#utility.yul\":5141:5150   */\n      dup3\n        /* \"#utility.yul\":5137:5155   */\n      add\n        /* \"#utility.yul\":5129:5155   */\n      swap1\n      pop\n        /* \"#utility.yul\":5201:5210   */\n      dup2\n        /* \"#utility.yul\":5195:5199   */\n      dup2\n        /* \"#utility.yul\":5191:5211   */\n      sub\n        /* \"#utility.yul\":5187:5188   */\n      0x00\n        /* \"#utility.yul\":5176:5185   */\n      dup4\n        /* \"#utility.yul\":5172:5189   */\n      add\n        /* \"#utility.yul\":5165:5212   */\n      mstore\n        /* \"#utility.yul\":5229:5360   */\n      tag_157\n        /* \"#utility.yul\":5355:5359   */\n      dup2\n        /* \"#utility.yul\":5229:5360   */\n      tag_99\n      jump\t// in\n    tag_157:\n        /* \"#utility.yul\":5221:5360   */\n      swap1\n      pop\n        /* \"#utility.yul\":4948:5367   */\n      swap2\n      swap1\n      pop\n      jump\t// out\n        /* \"#utility.yul\":5373:5553   */\n    tag_100:\n        /* \"#utility.yul\":5421:5498   */\n      0x4e487b7100000000000000000000000000000000000000000000000000000000\n        /* \"#utility.yul\":5418:5419   */\n      0x00\n        /* \"#utility.yul\":5411:5499   */\n      mstore\n        /* \"#utility.yul\":5518:5522   */\n      0x11\n        /* \"#utility.yul\":5515:5516   */\n      0x04\n        /* \"#utility.yul\":5508:5523   */\n      mstore\n        /* \"#utility.yul\":5542:5546   */\n      0x24\n        /* \"#utility.yul\":5539:5540   */\n      0x00\n        /* \"#utility.yul\":5532:5547   */\n      revert\n        /* \"#utility.yul\":5559:5753   */\n    tag_46:\n        /* \"#utility.yul\":5599:5603   */\n      0x00\n        /* \"#utility.yul\":5619:5639   */\n      tag_160\n        /* \"#utility.yul\":5637:5638   */\n      dup3\n        /* \"#utility.yul\":5619:5639   */\n      tag_82\n      jump\t// in\n    tag_160:\n        /* \"#utility.yul\":5614:5639   */\n      swap2\n      pop\n        /* \"#utility.yul\":5653:5673   */\n      tag_161\n        /* \"#utility.yul\":5671:5672   */\n      dup4\n        /* \"#utility.yul\":5653:5673   */\n      tag_82\n      jump\t// in\n    tag_161:\n        /* \"#utility.yul\":5648:5673   */\n      swap3\n      pop\n        /* \"#utility.yul\":5697:5698   */\n      dup3\n        /* \"#utility.yul\":5694:5695   */\n      dup3\n        /* \"#utility.yul\":5690:5699   */\n      sub\n        /* \"#utility.yul\":5682:5699   */\n      swap1\n      pop\n        /* \"#utility.yul\":5721:5722   */\n      dup2\n        /* \"#utility.yul\":5715:5719   */\n      dup2\n        /* \"#utility.yul\":5712:5723   */\n      gt\n        /* \"#utility.yul\":5709:5746   */\n      iszero\n      tag_162\n      jumpi\n        /* \"#utility.yul\":5726:5744   */\n      tag_163\n      tag_100\n      jump\t// in\n    tag_163:\n        /* \"#utility.yul\":5709:5746   */\n    tag_162:\n        /* \"#utility.yul\":5559:5753   */\n      swap3\n      swap2\n      pop\n      pop\n      jump\t// out\n        /* \"#utility.yul\":5759:6091   */\n    tag_51:\n        /* \"#utility.yul\":5880:5884   */\n      0x00\n        /* \"#utility.yul\":5918:5920   */\n      0x40\n        /* \"#utility.yul\":5907:5916   */\n      dup3\n        /* \"#utility.yul\":5903:5921   */\n      add\n        /* \"#utility.yul\":5895:5921   */\n      swap1\n      pop\n        /* \"#utility.yul\":5931:6002   */\n      tag_165\n        /* \"#utility.yul\":5999:6000   */\n      0x00\n        /* \"#utility.yul\":5988:5997   */\n      dup4\n        /* \"#utility.yul\":5984:6001   */\n      add\n        /* \"#utility.yul\":5975:5981   */\n      dup6\n        /* \"#utility.yul\":5931:6002   */\n      tag_85\n      jump\t// in\n    tag_165:\n        /* \"#utility.yul\":6012:6084   */\n      tag_166\n        /* \"#utility.yul\":6080:6082   */\n      0x20\n        /* \"#utility.yul\":6069:6078   */\n      dup4\n        /* \"#utility.yul\":6065:6083   */\n      add\n        /* \"#utility.yul\":6056:6062   */\n      dup5\n        /* \"#utility.yul\":6012:6084   */\n      tag_85\n      jump\t// in\n    tag_166:\n        /* \"#utility.yul\":5759:6091   */\n      swap4\n      swap3\n      pop\n      pop\n      pop\n      jump\t// out\n        /* \"#utility.yul\":6097:6288   */\n    tag_59:\n        /* \"#utility.yul\":6137:6140   */\n      0x00\n        /* \"#utility.yul\":6156:6176   */\n      tag_168\n        /* \"#utility.yul\":6174:6175   */\n      dup3\n        /* \"#utility.yul\":6156:6176   */\n      tag_82\n      jump\t// in\n    tag_168:\n        /* \"#utility.yul\":6151:6176   */\n      swap2\n      pop\n        /* \"#utility.yul\":6190:6210   */\n      tag_169\n        /* \"#utility.yul\":6208:6209   */\n      dup4\n        /* \"#utility.yul\":6190:6210   */\n      tag_82\n      jump\t// in\n    tag_169:\n        /* \"#utility.yul\":6185:6210   */\n      swap3\n      pop\n        /* \"#utility.yul\":6233:6234   */\n      dup3\n        /* \"#utility.yul\":6230:6231   */\n      dup3\n        /* \"#utility.yul\":6226:6235   */\n      add\n        /* \"#utility.yul\":6219:6235   */\n      swap1\n      pop\n        /* \"#utility.yul\":6254:6257   */\n      dup1\n        /* \"#utility.yul\":6251:6252   */\n      dup3\n        /* \"#utility.yul\":6248:6258   */\n      gt\n        /* \"#utility.yul\":6245:6281   */\n      iszero\n      tag_170\n      jumpi\n        /* \"#utility.yul\":6261:6279   */\n      tag_171\n      tag_100\n      jump\t// in\n    tag_171:\n        /* \"#utility.yul\":6245:6281   */\n    tag_170:\n        /* \"#utility.yul\":6097:6288   */\n      swap3\n      swap2\n      pop\n      pop\n      jump\t// out\n        /* \"#utility.yul\":6294:6412   */\n    tag_101:\n        /* \"#utility.yul\":6381:6405   */\n      tag_173\n        /* \"#utility.yul\":6399:6404   */\n      dup2\n        /* \"#utility.yul\":6381:6405   */\n      tag_87\n      jump\t// in\n    tag_173:\n        /* \"#utility.yul\":6376:6379   */\n      dup3\n        /* \"#utility.yul\":6369:6406   */\n      mstore\n        /* \"#utility.yul\":6294:6412   */\n      pop\n      pop\n      jump\t// out\n        /* \"#utility.yul\":6418:6750   */\n    tag_66:\n        /* \"#utility.yul\":6539:6543   */\n      0x00\n        /* \"#utility.yul\":6577:6579   */\n      0x40\n        /* \"#utility.yul\":6566:6575   */\n      dup3\n        /* \"#utility.yul\":6562:6580   */\n      add\n        /* \"#utility.yul\":6554:6580   */\n      swap1\n      pop\n        /* \"#utility.yul\":6590:6661   */\n      tag_175\n        /* \"#utility.yul\":6658:6659   */\n      0x00\n        /* \"#utility.yul\":6647:6656   */\n      dup4\n        /* \"#utility.yul\":6643:6660   */\n      add\n        /* \"#utility.yul\":6634:6640   */\n      dup6\n        /* \"#utility.yul\":6590:6661   */\n      tag_101\n      jump\t// in\n    tag_175:\n        /* \"#utility.yul\":6671:6743   */\n      tag_176\n        /* \"#utility.yul\":6739:6741   */\n      0x20\n        /* \"#utility.yul\":6728:6737   */\n      dup4\n        /* \"#utility.yul\":6724:6742   */\n      add\n        /* \"#utility.yul\":6715:6721   */\n      dup5\n        /* \"#utility.yul\":6671:6743   */\n      tag_85\n      jump\t// in\n    tag_176:\n        /* \"#utility.yul\":6418:6750   */\n      swap4\n      swap3\n      pop\n      pop\n      pop\n      jump\t// out\n        /* \"#utility.yul\":6756:7198   */\n    tag_71:\n        /* \"#utility.yul\":6905:6909   */\n      0x00\n        /* \"#utility.yul\":6943:6945   */\n      0x60\n        /* \"#utility.yul\":6932:6941   */\n      dup3\n        /* \"#utility.yul\":6928:6946   */\n      add\n        /* \"#utility.yul\":6920:6946   */\n      swap1\n      pop\n        /* \"#utility.yul\":6956:7027   */\n      tag_178\n        /* \"#utility.yul\":7024:7025   */\n      0x00\n        /* \"#utility.yul\":7013:7022   */\n      dup4\n        /* \"#utility.yul\":7009:7026   */\n      add\n        /* \"#utility.yul\":7000:7006   */\n      dup7\n        /* \"#utility.yul\":6956:7027   */\n      tag_101\n      jump\t// in\n    tag_178:\n        /* \"#utility.yul\":7037:7109   */\n      tag_179\n        /* \"#utility.yul\":7105:7107   */\n      0x20\n        /* \"#utility.yul\":7094:7103   */\n      dup4\n        /* \"#utility.yul\":7090:7108   */\n      add\n        /* \"#utility.yul\":7081:7087   */\n      dup6\n        /* \"#utility.yul\":7037:7109   */\n      tag_101\n      jump\t// in\n    tag_179:\n        /* \"#utility.yul\":7119:7191   */\n      tag_180\n        /* \"#utility.yul\":7187:7189   */\n      0x40\n        /* \"#utility.yul\":7176:7185   */\n      dup4\n        /* \"#utility.yul\":7172:7190   */\n      add\n        /* \"#utility.yul\":7163:7169   */\n      dup5\n        /* \"#utility.yul\":7119:7191   */\n      tag_85\n      jump\t// in\n    tag_180:\n        /* \"#utility.yul\":6756:7198   */\n      swap5\n      swap4\n      pop\n      pop\n      pop\n      pop\n      jump\t// out\n        /* \"#utility.yul\":7204:7426   */\n    tag_78:\n        /* \"#utility.yul\":7297:7301   */\n      0x00\n        /* \"#utility.yul\":7335:7337   */\n      0x20\n        /* \"#utility.yul\":7324:7333   */\n      dup3\n        /* \"#utility.yul\":7320:7338   */\n      add\n        /* \"#utility.yul\":7312:7338   */\n      swap1\n      pop\n        /* \"#utility.yul\":7348:7419   */\n      tag_182\n        /* \"#utility.yul\":7416:7417   */\n      0x00\n        /* \"#utility.yul\":7405:7414   */\n      dup4\n        /* \"#utility.yul\":7401:7418   */\n      add\n        /* \"#utility.yul\":7392:7398   */\n      dup5\n        /* \"#utility.yul\":7348:7419   */\n      tag_101\n      jump\t// in\n    tag_182:\n        /* \"#utility.yul\":7204:7426   */\n      swap3\n      swap2\n      pop\n      pop\n      jump\t// out\n\n    auxdata: 0xa264697066735822122092a73fdfabda89f8f485573b091f0672bbb8872a25367f6d648f9cff94df3a2b64736f6c634300081e0033\n}\n",
				"bytecode": {
					"linkReferences": {},
					"object": "60a060405234801561000f575f5ffd5b50604051610cfa380380610cfa83398181016040528101906100319190610137565b5f73ffffffffffffffffffffffffffffffffffffffff168173ffffffffffffffffffffffffffffffffffffffff160361009f576040517f08c379a0000000000000000000000000000000000000000000000000000000008152600401610096906101e2565b60405180910390fd5b8073ffffffffffffffffffffffffffffffffffffffff1660808173ffffffffffffffffffffffffffffffffffffffff168152505050610200565b5f5ffd5b5f73ffffffffffffffffffffffffffffffffffffffff82169050919050565b5f610106826100dd565b9050919050565b610116816100fc565b8114610120575f5ffd5b50565b5f815190506101318161010d565b92915050565b5f6020828403121561014c5761014b6100d9565b5b5f61015984828501610123565b91505092915050565b5f82825260208201905092915050565b7f4d696e694c656e64696e67506f6f6c3a20746f6b656e206164647265737320635f8201527f616e6e6f74206265207a65726f00000000000000000000000000000000000000602082015250565b5f6101cc602d83610162565b91506101d782610172565b604082019050919050565b5f6020820190508181035f8301526101f9816101c0565b9050919050565b608051610ad46102265f395f81816102a40152818161038e01526104d90152610ad45ff3fe608060405234801561000f575f5ffd5b506004361061007b575f3560e01c8063e1254fba11610059578063e1254fba146100d5578063fc0c546a14610105578063fc7e286d14610123578063ff50abdc146101535761007b565b80632e1a7d4d1461007f578063b68ef5591461009b578063b6b55f25146100b9575b5f5ffd5b610099600480360381019061009491906106e8565b610171565b005b6100a361033c565b6040516100b09190610722565b60405180910390f35b6100d360048036038101906100ce91906106e8565b610344565b005b6100ef60048036038101906100ea9190610795565b610491565b6040516100fc9190610722565b60405180910390f35b61010d6104d7565b60405161011a919061081b565b60405180910390f35b61013d60048036038101906101389190610795565b6104fb565b60405161014a9190610722565b60405180910390f35b61015b610510565b6040516101689190610722565b60405180910390f35b5f81116101b3576040517f08c379a00000000000000000000000000000000000000000000000000000000081526004016101aa906108b4565b60405180910390fd5b8060015f3373ffffffffffffffffffffffffffffffffffffffff1673ffffffffffffffffffffffffffffffffffffffff1681526020019081526020015f20541015610233576040517f08c379a000000000000000000000000000000000000000000000000000000000815260040161022a90610942565b60405180910390fd5b8060015f3373ffffffffffffffffffffffffffffffffffffffff1673ffffffffffffffffffffffffffffffffffffffff1681526020019081526020015f205f82825461027f919061098d565b92505081905550805f5f828254610296919061098d565b925050819055506102e833827f000000000000000000000000000000000000000000000000000000000000000073ffffffffffffffffffffffffffffffffffffffff166105159092919063ffffffff16565b3373ffffffffffffffffffffffffffffffffffffffff167f92ccf450a286a957af52509bc1c9939d1a6a481783e142e41e2499f0bb66ebc6825f546040516103319291906109c0565b60405180910390a250565b5f5f54905090565b5f8111610386576040517f08c379a000000000000000000000000000000000000000000000000000000000815260040161037d906108b4565b60405180910390fd5b6103d33330837f000000000000000000000000000000000000000000000000000000000000000073ffffffffffffffffffffffffffffffffffffffff16610594909392919063ffffffff16565b8060015f3373ffffffffffffffffffffffffffffffffffffffff1673ffffffffffffffffffffffffffffffffffffffff1681526020019081526020015f205f82825461041f91906109e7565b92505081905550805f5f82825461043691906109e7565b925050819055503373ffffffffffffffffffffffffffffffffffffffff167f73a19dd210f1a7f902193214c0ee91dd35ee5b4d920cba8d519eca65a7b488ca825f546040516104869291906109c0565b60405180910390a250565b5f60015f8373ffffffffffffffffffffffffffffffffffffffff1673ffffffffffffffffffffffffffffffffffffffff1681526020019081526020015f20549050919050565b7f000000000000000000000000000000000000000000000000000000000000000081565b6001602052805f5260405f205f915090505481565b5f5481565b61058f838473ffffffffffffffffffffffffffffffffffffffff1663a9059cbb8585604051602401610548929190610a29565b604051602081830303815290604052915060e01b6020820180517bffffffffffffffffffffffffffffffffffffffffffffffffffffffff8381831617835250505050610616565b505050565b610610848573ffffffffffffffffffffffffffffffffffffffff166323b872dd8686866040516024016105c993929190610a50565b604051602081830303815290604052915060e01b6020820180517bffffffffffffffffffffffffffffffffffffffffffffffffffffffff8381831617835250505050610616565b50505050565b5f5f60205f8451602086015f885af180610635576040513d5f823e3d81fd5b3d92505f519150505f821461064e576001811415610669565b5f8473ffffffffffffffffffffffffffffffffffffffff163b145b156106ab57836040517f5274afe70000000000000000000000000000000000000000000000000000000081526004016106a29190610a85565b60405180910390fd5b50505050565b5f5ffd5b5f819050919050565b6106c7816106b5565b81146106d1575f5ffd5b50565b5f813590506106e2816106be565b92915050565b5f602082840312156106fd576106fc6106b1565b5b5f61070a848285016106d4565b91505092915050565b61071c816106b5565b82525050565b5f6020820190506107355f830184610713565b92915050565b5f73ffffffffffffffffffffffffffffffffffffffff82169050919050565b5f6107648261073b565b9050919050565b6107748161075a565b811461077e575f5ffd5b50565b5f8135905061078f8161076b565b92915050565b5f602082840312156107aa576107a96106b1565b5b5f6107b784828501610781565b91505092915050565b5f819050919050565b5f6107e36107de6107d98461073b565b6107c0565b61073b565b9050919050565b5f6107f4826107c9565b9050919050565b5f610805826107ea565b9050919050565b610815816107fb565b82525050565b5f60208201905061082e5f83018461080c565b92915050565b5f82825260208201905092915050565b7f4d696e694c656e64696e67506f6f6c3a20616d6f756e74206d757374206265205f8201527f67726561746572207468616e207a65726f000000000000000000000000000000602082015250565b5f61089e603183610834565b91506108a982610844565b604082019050919050565b5f6020820190508181035f8301526108cb81610892565b9050919050565b7f4d696e694c656e64696e67506f6f6c3a20696e73756666696369656e742062615f8201527f6c616e6365000000000000000000000000000000000000000000000000000000602082015250565b5f61092c602583610834565b9150610937826108d2565b604082019050919050565b5f6020820190508181035f83015261095981610920565b9050919050565b7f4e487b71000000000000000000000000000000000000000000000000000000005f52601160045260245ffd5b5f610997826106b5565b91506109a2836106b5565b92508282039050818111156109ba576109b9610960565b5b92915050565b5f6040820190506109d35f830185610713565b6109e06020830184610713565b9392505050565b5f6109f1826106b5565b91506109fc836106b5565b9250828201905080821115610a1457610a13610960565b5b92915050565b610a238161075a565b82525050565b5f604082019050610a3c5f830185610a1a565b610a496020830184610713565b9392505050565b5f606082019050610a635f830186610a1a565b610a706020830185610a1a565b610a7d6040830184610713565b949350505050565b5f602082019050610a985f830184610a1a565b9291505056fea264697066735822122092a73fdfabda89f8f485573b091f0672bbb8872a25367f6d648f9cff94df3a2b64736f6c634300081e0033",
					"opcodes": "PUSH1 0xA0 PUSH1 0x40 MSTORE CALLVALUE DUP1 ISZERO PUSH2 0xF JUMPI PUSH0 PUSH0 REVERT JUMPDEST POP PUSH1 0x40 MLOAD PUSH2 0xCFA CODESIZE SUB DUP1 PUSH2 0xCFA DUP4 CODECOPY DUP2 DUP2 ADD PUSH1 0x40 MSTORE DUP2 ADD SWAP1 PUSH2 0x31 SWAP2 SWAP1 PUSH2 0x137 JUMP JUMPDEST PUSH0 PUSH20 0xFFFFFFFFFFFFFFFFFFFFFFFFFFFFFFFFFFFFFFFF AND DUP2 PUSH20 0xFFFFFFFFFFFFFFFFFFFFFFFFFFFFFFFFFFFFFFFF AND SUB PUSH2 0x9F JUMPI PUSH1 0x40 MLOAD PUSH32 0x8C379A000000000000000000000000000000000000000000000000000000000 DUP2 MSTORE PUSH1 0x4 ADD PUSH2 0x96 SWAP1 PUSH2 0x1E2 JUMP JUMPDEST PUSH1 0x40 MLOAD DUP1 SWAP2 SUB SWAP1 REVERT JUMPDEST DUP1 PUSH20 0xFFFFFFFFFFFFFFFFFFFFFFFFFFFFFFFFFFFFFFFF AND PUSH1 0x80 DUP2 PUSH20 0xFFFFFFFFFFFFFFFFFFFFFFFFFFFFFFFFFFFFFFFF AND DUP2 MSTORE POP POP POP PUSH2 0x200 JUMP JUMPDEST PUSH0 PUSH0 REVERT JUMPDEST PUSH0 PUSH20 0xFFFFFFFFFFFFFFFFFFFFFFFFFFFFFFFFFFFFFFFF DUP3 AND SWAP1 POP SWAP2 SWAP1 POP JUMP JUMPDEST PUSH0 PUSH2 0x106 DUP3 PUSH2 0xDD JUMP JUMPDEST SWAP1 POP SWAP2 SWAP1 POP JUMP JUMPDEST PUSH2 0x116 DUP2 PUSH2 0xFC JUMP JUMPDEST DUP2 EQ PUSH2 0x120 JUMPI PUSH0 PUSH0 REVERT JUMPDEST POP JUMP JUMPDEST PUSH0 DUP2 MLOAD SWAP1 POP PUSH2 0x131 DUP2 PUSH2 0x10D JUMP JUMPDEST SWAP3 SWAP2 POP POP JUMP JUMPDEST PUSH0 PUSH1 0x20 DUP3 DUP5 SUB SLT ISZERO PUSH2 0x14C JUMPI PUSH2 0x14B PUSH2 0xD9 JUMP JUMPDEST JUMPDEST PUSH0 PUSH2 0x159 DUP5 DUP3 DUP6 ADD PUSH2 0x123 JUMP JUMPDEST SWAP2 POP POP SWAP3 SWAP2 POP POP JUMP JUMPDEST PUSH0 DUP3 DUP3 MSTORE PUSH1 0x20 DUP3 ADD SWAP1 POP SWAP3 SWAP2 POP POP JUMP JUMPDEST PUSH32 0x4D696E694C656E64696E67506F6F6C3A20746F6B656E20616464726573732063 PUSH0 DUP3 ADD MSTORE PUSH32 0x616E6E6F74206265207A65726F00000000000000000000000000000000000000 PUSH1 0x20 DUP3 ADD MSTORE POP JUMP JUMPDEST PUSH0 PUSH2 0x1CC PUSH1 0x2D DUP4 PUSH2 0x162 JUMP JUMPDEST SWAP2 POP PUSH2 0x1D7 DUP3 PUSH2 0x172 JUMP JUMPDEST PUSH1 0x40 DUP3 ADD SWAP1 POP SWAP2 SWAP1 POP JUMP JUMPDEST PUSH0 PUSH1 0x20 DUP3 ADD SWAP1 POP DUP2 DUP2 SUB PUSH0 DUP4 ADD MSTORE PUSH2 0x1F9 DUP2 PUSH2 0x1C0 JUMP JUMPDEST SWAP1 POP SWAP2 SWAP1 POP JUMP JUMPDEST PUSH1 0x80 MLOAD PUSH2 0xAD4 PUSH2 0x226 PUSH0 CODECOPY PUSH0 DUP2 DUP2 PUSH2 0x2A4 ADD MSTORE DUP2 DUP2 PUSH2 0x38E ADD MSTORE PUSH2 0x4D9 ADD MSTORE PUSH2 0xAD4 PUSH0 RETURN INVALID PUSH1 0x80 PUSH1 0x40 MSTORE CALLVALUE DUP1 ISZERO PUSH2 0xF JUMPI PUSH0 PUSH0 REVERT JUMPDEST POP PUSH1 0x4 CALLDATASIZE LT PUSH2 0x7B JUMPI PUSH0 CALLDATALOAD PUSH1 0xE0 SHR DUP1 PUSH4 0xE1254FBA GT PUSH2 0x59 JUMPI DUP1 PUSH4 0xE1254FBA EQ PUSH2 0xD5 JUMPI DUP1 PUSH4 0xFC0C546A EQ PUSH2 0x105 JUMPI DUP1 PUSH4 0xFC7E286D EQ PUSH2 0x123 JUMPI DUP1 PUSH4 0xFF50ABDC EQ PUSH2 0x153 JUMPI PUSH2 0x7B JUMP JUMPDEST DUP1 PUSH4 0x2E1A7D4D EQ PUSH2 0x7F JUMPI DUP1 PUSH4 0xB68EF559 EQ PUSH2 0x9B JUMPI DUP1 PUSH4 0xB6B55F25 EQ PUSH2 0xB9 JUMPI JUMPDEST PUSH0 PUSH0 REVERT JUMPDEST PUSH2 0x99 PUSH1 0x4 DUP1 CALLDATASIZE SUB DUP2 ADD SWAP1 PUSH2 0x94 SWAP2 SWAP1 PUSH2 0x6E8 JUMP JUMPDEST PUSH2 0x171 JUMP JUMPDEST STOP JUMPDEST PUSH2 0xA3 PUSH2 0x33C JUMP JUMPDEST PUSH1 0x40 MLOAD PUSH2 0xB0 SWAP2 SWAP1 PUSH2 0x722 JUMP JUMPDEST PUSH1 0x40 MLOAD DUP1 SWAP2 SUB SWAP1 RETURN JUMPDEST PUSH2 0xD3 PUSH1 0x4 DUP1 CALLDATASIZE SUB DUP2 ADD SWAP1 PUSH2 0xCE SWAP2 SWAP1 PUSH2 0x6E8 JUMP JUMPDEST PUSH2 0x344 JUMP JUMPDEST STOP JUMPDEST PUSH2 0xEF PUSH1 0x4 DUP1 CALLDATASIZE SUB DUP2 ADD SWAP1 PUSH2 0xEA SWAP2 SWAP1 PUSH2 0x795 JUMP JUMPDEST PUSH2 0x491 JUMP JUMPDEST PUSH1 0x40 MLOAD PUSH2 0xFC SWAP2 SWAP1 PUSH2 0x722 JUMP JUMPDEST PUSH1 0x40 MLOAD DUP1 SWAP2 SUB SWAP1 RETURN JUMPDEST PUSH2 0x10D PUSH2 0x4D7 JUMP JUMPDEST PUSH1 0x40 MLOAD PUSH2 0x11A SWAP2 SWAP1 PUSH2 0x81B JUMP JUMPDEST PUSH1 0x40 MLOAD DUP1 SWAP2 SUB SWAP1 RETURN JUMPDEST PUSH2 0x13D PUSH1 0x4 DUP1 CALLDATASIZE SUB DUP2 ADD SWAP1 PUSH2 0x138 SWAP2 SWAP1 PUSH2 0x795 JUMP JUMPDEST PUSH2 0x4FB JUMP JUMPDEST PUSH1 0x40 MLOAD PUSH2 0x14A SWAP2 SWAP1 PUSH2 0x722 JUMP JUMPDEST PUSH1 0x40 MLOAD DUP1 SWAP2 SUB SWAP1 RETURN JUMPDEST PUSH2 0x15B PUSH2 0x510 JUMP JUMPDEST PUSH1 0x40 MLOAD PUSH2 0x168 SWAP2 SWAP1 PUSH2 0x722 JUMP JUMPDEST PUSH1 0x40 MLOAD DUP1 SWAP2 SUB SWAP1 RETURN JUMPDEST PUSH0 DUP2 GT PUSH2 0x1B3 JUMPI PUSH1 0x40 MLOAD PUSH32 0x8C379A000000000000000000000000000000000000000000000000000000000 DUP2 MSTORE PUSH1 0x4 ADD PUSH2 0x1AA SWAP1 PUSH2 0x8B4 JUMP JUMPDEST PUSH1 0x40 MLOAD DUP1 SWAP2 SUB SWAP1 REVERT JUMPDEST DUP1 PUSH1 0x1 PUSH0 CALLER PUSH20 0xFFFFFFFFFFFFFFFFFFFFFFFFFFFFFFFFFFFFFFFF AND PUSH20 0xFFFFFFFFFFFFFFFFFFFFFFFFFFFFFFFFFFFFFFFF AND DUP2 MSTORE PUSH1 0x20 ADD SWAP1 DUP2 MSTORE PUSH1 0x20 ADD PUSH0 KECCAK256 SLOAD LT ISZERO PUSH2 0x233 JUMPI PUSH1 0x40 MLOAD PUSH32 0x8C379A000000000000000000000000000000000000000000000000000000000 DUP2 MSTORE PUSH1 0x4 ADD PUSH2 0x22A SWAP1 PUSH2 0x942 JUMP JUMPDEST PUSH1 0x40 MLOAD DUP1 SWAP2 SUB SWAP1 REVERT JUMPDEST DUP1 PUSH1 0x1 PUSH0 CALLER PUSH20 0xFFFFFFFFFFFFFFFFFFFFFFFFFFFFFFFFFFFFFFFF AND PUSH20 0xFFFFFFFFFFFFFFFFFFFFFFFFFFFFFFFFFFFFFFFF AND DUP2 MSTORE PUSH1 0x20 ADD SWAP1 DUP2 MSTORE PUSH1 0x20 ADD PUSH0 KECCAK256 PUSH0 DUP3 DUP3 SLOAD PUSH2 0x27F SWAP2 SWAP1 PUSH2 0x98D JUMP JUMPDEST SWAP3 POP POP DUP2 SWAP1 SSTORE POP DUP1 PUSH0 PUSH0 DUP3 DUP3 SLOAD PUSH2 0x296 SWAP2 SWAP1 PUSH2 0x98D JUMP JUMPDEST SWAP3 POP POP DUP2 SWAP1 SSTORE POP PUSH2 0x2E8 CALLER DUP3 PUSH32 0x0 PUSH20 0xFFFFFFFFFFFFFFFFFFFFFFFFFFFFFFFFFFFFFFFF AND PUSH2 0x515 SWAP1 SWAP3 SWAP2 SWAP1 PUSH4 0xFFFFFFFF AND JUMP JUMPDEST CALLER PUSH20 0xFFFFFFFFFFFFFFFFFFFFFFFFFFFFFFFFFFFFFFFF AND PUSH32 0x92CCF450A286A957AF52509BC1C9939D1A6A481783E142E41E2499F0BB66EBC6 DUP3 PUSH0 SLOAD PUSH1 0x40 MLOAD PUSH2 0x331 SWAP3 SWAP2 SWAP1 PUSH2 0x9C0 JUMP JUMPDEST PUSH1 0x40 MLOAD DUP1 SWAP2 SUB SWAP1 LOG2 POP JUMP JUMPDEST PUSH0 PUSH0 SLOAD SWAP1 POP SWAP1 JUMP JUMPDEST PUSH0 DUP2 GT PUSH2 0x386 JUMPI PUSH1 0x40 MLOAD PUSH32 0x8C379A000000000000000000000000000000000000000000000000000000000 DUP2 MSTORE PUSH1 0x4 ADD PUSH2 0x37D SWAP1 PUSH2 0x8B4 JUMP JUMPDEST PUSH1 0x40 MLOAD DUP1 SWAP2 SUB SWAP1 REVERT JUMPDEST PUSH2 0x3D3 CALLER ADDRESS DUP4 PUSH32 0x0 PUSH20 0xFFFFFFFFFFFFFFFFFFFFFFFFFFFFFFFFFFFFFFFF AND PUSH2 0x594 SWAP1 SWAP4 SWAP3 SWAP2 SWAP1 PUSH4 0xFFFFFFFF AND JUMP JUMPDEST DUP1 PUSH1 0x1 PUSH0 CALLER PUSH20 0xFFFFFFFFFFFFFFFFFFFFFFFFFFFFFFFFFFFFFFFF AND PUSH20 0xFFFFFFFFFFFFFFFFFFFFFFFFFFFFFFFFFFFFFFFF AND DUP2 MSTORE PUSH1 0x20 ADD SWAP1 DUP2 MSTORE PUSH1 0x20 ADD PUSH0 KECCAK256 PUSH0 DUP3 DUP3 SLOAD PUSH2 0x41F SWAP2 SWAP1 PUSH2 0x9E7 JUMP JUMPDEST SWAP3 POP POP DUP2 SWAP1 SSTORE POP DUP1 PUSH0 PUSH0 DUP3 DUP3 SLOAD PUSH2 0x436 SWAP2 SWAP1 PUSH2 0x9E7 JUMP JUMPDEST SWAP3 POP POP DUP2 SWAP1 SSTORE POP CALLER PUSH20 0xFFFFFFFFFFFFFFFFFFFFFFFFFFFFFFFFFFFFFFFF AND PUSH32 0x73A19DD210F1A7F902193214C0EE91DD35EE5B4D920CBA8D519ECA65A7B488CA DUP3 PUSH0 SLOAD PUSH1 0x40 MLOAD PUSH2 0x486 SWAP3 SWAP2 SWAP1 PUSH2 0x9C0 JUMP JUMPDEST PUSH1 0x40 MLOAD DUP1 SWAP2 SUB SWAP1 LOG2 POP JUMP JUMPDEST PUSH0 PUSH1 0x1 PUSH0 DUP4 PUSH20 0xFFFFFFFFFFFFFFFFFFFFFFFFFFFFFFFFFFFFFFFF AND PUSH20 0xFFFFFFFFFFFFFFFFFFFFFFFFFFFFFFFFFFFFFFFF AND DUP2 MSTORE PUSH1 0x20 ADD SWAP1 DUP2 MSTORE PUSH1 0x20 ADD PUSH0 KECCAK256 SLOAD SWAP1 POP SWAP2 SWAP1 POP JUMP JUMPDEST PUSH32 0x0 DUP2 JUMP JUMPDEST PUSH1 0x1 PUSH1 0x20 MSTORE DUP1 PUSH0 MSTORE PUSH1 0x40 PUSH0 KECCAK256 PUSH0 SWAP2 POP SWAP1 POP SLOAD DUP2 JUMP JUMPDEST PUSH0 SLOAD DUP2 JUMP JUMPDEST PUSH2 0x58F DUP4 DUP5 PUSH20 0xFFFFFFFFFFFFFFFFFFFFFFFFFFFFFFFFFFFFFFFF AND PUSH4 0xA9059CBB DUP6 DUP6 PUSH1 0x40 MLOAD PUSH1 0x24 ADD PUSH2 0x548 SWAP3 SWAP2 SWAP1 PUSH2 0xA29 JUMP JUMPDEST PUSH1 0x40 MLOAD PUSH1 0x20 DUP2 DUP4 SUB SUB DUP2 MSTORE SWAP1 PUSH1 0x40 MSTORE SWAP2 POP PUSH1 0xE0 SHL PUSH1 0x20 DUP3 ADD DUP1 MLOAD PUSH28 0xFFFFFFFFFFFFFFFFFFFFFFFFFFFFFFFFFFFFFFFFFFFFFFFFFFFFFFFF DUP4 DUP2 DUP4 AND OR DUP4 MSTORE POP POP POP POP PUSH2 0x616 JUMP JUMPDEST POP POP POP JUMP JUMPDEST PUSH2 0x610 DUP5 DUP6 PUSH20 0xFFFFFFFFFFFFFFFFFFFFFFFFFFFFFFFFFFFFFFFF AND PUSH4 0x23B872DD DUP7 DUP7 DUP7 PUSH1 0x40 MLOAD PUSH1 0x24 ADD PUSH2 0x5C9 SWAP4 SWAP3 SWAP2 SWAP1 PUSH2 0xA50 JUMP JUMPDEST PUSH1 0x40 MLOAD PUSH1 0x20 DUP2 DUP4 SUB SUB DUP2 MSTORE SWAP1 PUSH1 0x40 MSTORE SWAP2 POP PUSH1 0xE0 SHL PUSH1 0x20 DUP3 ADD DUP1 MLOAD PUSH28 0xFFFFFFFFFFFFFFFFFFFFFFFFFFFFFFFFFFFFFFFFFFFFFFFFFFFFFFFF DUP4 DUP2 DUP4 AND OR DUP4 MSTORE POP POP POP POP PUSH2 0x616 JUMP JUMPDEST POP POP POP POP JUMP JUMPDEST PUSH0 PUSH0 PUSH1 0x20 PUSH0 DUP5 MLOAD PUSH1 0x20 DUP7 ADD PUSH0 DUP9 GAS CALL DUP1 PUSH2 0x635 JUMPI PUSH1 0x40 MLOAD RETURNDATASIZE PUSH0 DUP3 RETURNDATACOPY RETURNDATASIZE DUP2 REVERT JUMPDEST RETURNDATASIZE SWAP3 POP PUSH0 MLOAD SWAP2 POP POP PUSH0 DUP3 EQ PUSH2 0x64E JUMPI PUSH1 0x1 DUP2 EQ ISZERO PUSH2 0x669 JUMP JUMPDEST PUSH0 DUP5 PUSH20 0xFFFFFFFFFFFFFFFFFFFFFFFFFFFFFFFFFFFFFFFF AND EXTCODESIZE EQ JUMPDEST ISZERO PUSH2 0x6AB JUMPI DUP4 PUSH1 0x40 MLOAD PUSH32 0x5274AFE700000000000000000000000000000000000000000000000000000000 DUP2 MSTORE PUSH1 0x4 ADD PUSH2 0x6A2 SWAP2 SWAP1 PUSH2 0xA85 JUMP JUMPDEST PUSH1 0x40 MLOAD DUP1 SWAP2 SUB SWAP1 REVERT JUMPDEST POP POP POP POP JUMP JUMPDEST PUSH0 PUSH0 REVERT JUMPDEST PUSH0 DUP2 SWAP1 POP SWAP2 SWAP1 POP JUMP JUMPDEST PUSH2 0x6C7 DUP2 PUSH2 0x6B5 JUMP JUMPDEST DUP2 EQ PUSH2 0x6D1 JUMPI PUSH0 PUSH0 REVERT JUMPDEST POP JUMP JUMPDEST PUSH0 DUP2 CALLDATALOAD SWAP1 POP PUSH2 0x6E2 DUP2 PUSH2 0x6BE JUMP JUMPDEST SWAP3 SWAP2 POP POP JUMP JUMPDEST PUSH0 PUSH1 0x20 DUP3 DUP5 SUB SLT ISZERO PUSH2 0x6FD JUMPI PUSH2 0x6FC PUSH2 0x6B1 JUMP JUMPDEST JUMPDEST PUSH0 PUSH2 0x70A DUP5 DUP3 DUP6 ADD PUSH2 0x6D4 JUMP JUMPDEST SWAP2 POP POP SWAP3 SWAP2 POP POP JUMP JUMPDEST PUSH2 0x71C DUP2 PUSH2 0x6B5 JUMP JUMPDEST DUP3 MSTORE POP POP JUMP JUMPDEST PUSH0 PUSH1 0x20 DUP3 ADD SWAP1 POP PUSH2 0x735 PUSH0 DUP4 ADD DUP5 PUSH2 0x713 JUMP JUMPDEST SWAP3 SWAP2 POP POP JUMP JUMPDEST PUSH0 PUSH20 0xFFFFFFFFFFFFFFFFFFFFFFFFFFFFFFFFFFFFFFFF DUP3 AND SWAP1 POP SWAP2 SWAP1 POP JUMP JUMPDEST PUSH0 PUSH2 0x764 DUP3 PUSH2 0x73B JUMP JUMPDEST SWAP1 POP SWAP2 SWAP1 POP JUMP JUMPDEST PUSH2 0x774 DUP2 PUSH2 0x75A JUMP JUMPDEST DUP2 EQ PUSH2 0x77E JUMPI PUSH0 PUSH0 REVERT JUMPDEST POP JUMP JUMPDEST PUSH0 DUP2 CALLDATALOAD SWAP1 POP PUSH2 0x78F DUP2 PUSH2 0x76B JUMP JUMPDEST SWAP3 SWAP2 POP POP JUMP JUMPDEST PUSH0 PUSH1 0x20 DUP3 DUP5 SUB SLT ISZERO PUSH2 0x7AA JUMPI PUSH2 0x7A9 PUSH2 0x6B1 JUMP JUMPDEST JUMPDEST PUSH0 PUSH2 0x7B7 DUP5 DUP3 DUP6 ADD PUSH2 0x781 JUMP JUMPDEST SWAP2 POP POP SWAP3 SWAP2 POP POP JUMP JUMPDEST PUSH0 DUP2 SWAP1 POP SWAP2 SWAP1 POP JUMP JUMPDEST PUSH0 PUSH2 0x7E3 PUSH2 0x7DE PUSH2 0x7D9 DUP5 PUSH2 0x73B JUMP JUMPDEST PUSH2 0x7C0 JUMP JUMPDEST PUSH2 0x73B JUMP JUMPDEST SWAP1 POP SWAP2 SWAP1 POP JUMP JUMPDEST PUSH0 PUSH2 0x7F4 DUP3 PUSH2 0x7C9 JUMP JUMPDEST SWAP1 POP SWAP2 SWAP1 POP JUMP JUMPDEST PUSH0 PUSH2 0x805 DUP3 PUSH2 0x7EA JUMP JUMPDEST SWAP1 POP SWAP2 SWAP1 POP JUMP JUMPDEST PUSH2 0x815 DUP2 PUSH2 0x7FB JUMP JUMPDEST DUP3 MSTORE POP POP JUMP JUMPDEST PUSH0 PUSH1 0x20 DUP3 ADD SWAP1 POP PUSH2 0x82E PUSH0 DUP4 ADD DUP5 PUSH2 0x80C JUMP JUMPDEST SWAP3 SWAP2 POP POP JUMP JUMPDEST PUSH0 DUP3 DUP3 MSTORE PUSH1 0x20 DUP3 ADD SWAP1 POP SWAP3 SWAP2 POP POP JUMP JUMPDEST PUSH32 0x4D696E694C656E64696E67506F6F6C3A20616D6F756E74206D75737420626520 PUSH0 DUP3 ADD MSTORE PUSH32 0x67726561746572207468616E207A65726F000000000000000000000000000000 PUSH1 0x20 DUP3 ADD MSTORE POP JUMP JUMPDEST PUSH0 PUSH2 0x89E PUSH1 0x31 DUP4 PUSH2 0x834 JUMP JUMPDEST SWAP2 POP PUSH2 0x8A9 DUP3 PUSH2 0x844 JUMP JUMPDEST PUSH1 0x40 DUP3 ADD SWAP1 POP SWAP2 SWAP1 POP JUMP JUMPDEST PUSH0 PUSH1 0x20 DUP3 ADD SWAP1 POP DUP2 DUP2 SUB PUSH0 DUP4 ADD MSTORE PUSH2 0x8CB DUP2 PUSH2 0x892 JUMP JUMPDEST SWAP1 POP SWAP2 SWAP1 POP JUMP JUMPDEST PUSH32 0x4D696E694C656E64696E67506F6F6C3A20696E73756666696369656E74206261 PUSH0 DUP3 ADD MSTORE PUSH32 0x6C616E6365000000000000000000000000000000000000000000000000000000 PUSH1 0x20 DUP3 ADD MSTORE POP JUMP JUMPDEST PUSH0 PUSH2 0x92C PUSH1 0x25 DUP4 PUSH2 0x834 JUMP JUMPDEST SWAP2 POP PUSH2 0x937 DUP3 PUSH2 0x8D2 JUMP JUMPDEST PUSH1 0x40 DUP3 ADD SWAP1 POP SWAP2 SWAP1 POP JUMP JUMPDEST PUSH0 PUSH1 0x20 DUP3 ADD SWAP1 POP DUP2 DUP2 SUB PUSH0 DUP4 ADD MSTORE PUSH2 0x959 DUP2 PUSH2 0x920 JUMP JUMPDEST SWAP1 POP SWAP2 SWAP1 POP JUMP JUMPDEST PUSH32 0x4E487B7100000000000000000000000000000000000000000000000000000000 PUSH0 MSTORE PUSH1 0x11 PUSH1 0x4 MSTORE PUSH1 0x24 PUSH0 REVERT JUMPDEST PUSH0 PUSH2 0x997 DUP3 PUSH2 0x6B5 JUMP JUMPDEST SWAP2 POP PUSH2 0x9A2 DUP4 PUSH2 0x6B5 JUMP JUMPDEST SWAP3 POP DUP3 DUP3 SUB SWAP1 POP DUP2 DUP2 GT ISZERO PUSH2 0x9BA JUMPI PUSH2 0x9B9 PUSH2 0x960 JUMP JUMPDEST JUMPDEST SWAP3 SWAP2 POP POP JUMP JUMPDEST PUSH0 PUSH1 0x40 DUP3 ADD SWAP1 POP PUSH2 0x9D3 PUSH0 DUP4 ADD DUP6 PUSH2 0x713 JUMP JUMPDEST PUSH2 0x9E0 PUSH1 0x20 DUP4 ADD DUP5 PUSH2 0x713 JUMP JUMPDEST SWAP4 SWAP3 POP POP POP JUMP JUMPDEST PUSH0 PUSH2 0x9F1 DUP3 PUSH2 0x6B5 JUMP JUMPDEST SWAP2 POP PUSH2 0x9FC DUP4 PUSH2 0x6B5 JUMP JUMPDEST SWAP3 POP DUP3 DUP3 ADD SWAP1 POP DUP1 DUP3 GT ISZERO PUSH2 0xA14 JUMPI PUSH2 0xA13 PUSH2 0x960 JUMP JUMPDEST JUMPDEST SWAP3 SWAP2 POP POP JUMP JUMPDEST PUSH2 0xA23 DUP2 PUSH2 0x75A JUMP JUMPDEST DUP3 MSTORE POP POP JUMP JUMPDEST PUSH0 PUSH1 0x40 DUP3 ADD SWAP1 POP PUSH2 0xA3C PUSH0 DUP4 ADD DUP6 PUSH2 0xA1A JUMP JUMPDEST PUSH2 0xA49 PUSH1 0x20 DUP4 ADD DUP5 PUSH2 0x713 JUMP JUMPDEST SWAP4 SWAP3 POP POP POP JUMP JUMPDEST PUSH0 PUSH1 0x60 DUP3 ADD SWAP1 POP PUSH2 0xA63 PUSH0 DUP4 ADD DUP7 PUSH2 0xA1A JUMP JUMPDEST PUSH2 0xA70 PUSH1 0x20 DUP4 ADD DUP6 PUSH2 0xA1A JUMP JUMPDEST PUSH2 0xA7D PUSH1 0x40 DUP4 ADD DUP5 PUSH2 0x713 JUMP JUMPDEST SWAP5 SWAP4 POP POP POP POP JUMP JUMPDEST PUSH0 PUSH1 0x20 DUP3 ADD SWAP1 POP PUSH2 0xA98 PUSH0 DUP4 ADD DUP5 PUSH2 0xA1A JUMP JUMPDEST SWAP3 SWAP2 POP POP JUMP INVALID LOG2 PUSH5 0x6970667358 0x22 SLT KECCAK256 SWAP3 0xA7 EXTCODEHASH 0xDF 0xAB 0xDA DUP10 EXTCALL DELEGATECALL DUP6 JUMPI EXTCODESIZE MULMOD 0x1F MOD PUSH19 0xBBB8872A25367F6D648F9CFF94DF3A2B64736F PUSH13 0x634300081E0033000000000000 "
				},
				"gasEstimates": {
					"creation": {
						"codeDepositCost": "554400",
						"executionCost": "infinite",
						"totalCost": "infinite"
					},
					"external": {
						"deposit(uint256)": "infinite",
						"deposits(address)": "2846",
						"getDeposit(address)": "2829",
						"getTotalDeposited()": "2454",
						"token()": "infinite",
						"totalDeposited()": "2490",
						"withdraw(uint256)": "infinite"
					}
				},
				"methodIdentifiers": {
					"deposit(uint256)": "b6b55f25",
					"deposits(address)": "fc7e286d",
					"getDeposit(address)": "e1254fba",
					"getTotalDeposited()": "b68ef559",
					"token()": "fc0c546a",
					"totalDeposited()": "ff50abdc",
					"withdraw(uint256)": "2e1a7d4d"
				}
			},
			"storageLayout": {
				"storage": [
					{
						"astId": 657,
						"contract": "part5/contracts/MiniLendingPool.sol:MiniLendingPool",
						"label": "totalDeposited",
						"offset": 0,
						"slot": "0",
						"type": "t_uint256"
					},
					{
						"astId": 661,
						"contract": "part5/contracts/MiniLendingPool.sol:MiniLendingPool",
						"label": "deposits",
						"offset": 0,
						"slot": "1",
						"type": "t_mapping(t_address,t_uint256)"
					}
				],
				"types": {
					"t_address": {
						"encoding": "inplace",
						"label": "address",
						"numberOfBytes": "20"
					},
					"t_mapping(t_address,t_uint256)": {
						"encoding": "mapping",
						"key": "t_address",
						"label": "mapping(address => uint256)",
						"numberOfBytes": "32",
						"value": "t_uint256"
					},
					"t_uint256": {
						"encoding": "inplace",
						"label": "uint256",
						"numberOfBytes": "32"
					}
				}
			},
			"userdoc": {
				"kind": "user",
				"methods": {},
				"version": 1
			}
		}
	}
}